:10000000A8300020551300005113000051130000C8
:1000100000000000000000000000000000000000E0
:10002000000000000000000000000000511300006C
:1000300000000000000000005113000051130000F8
:100040005113000051130000511300005113000020
:10005000D11B000051130000511300005113000088
:100060005113000051130000511300005113000000
:1000700051130000511300005113000051130000F0
:1000800051130000511300005113000051130000E0
:1000900051130000511300005113000051130000D0
:1000A0005113000010B5064C2378002B07D1054BE7
:1000B000002B02D0044800E000BF0123237010BDD4
:1000C000C80900200000000024B60000084B10B54D
:1000D000002B03D00749084800E000BF0748036829
:1000E000002B00D110BD064B002BFBD09847F9E741
:1000F00000000000CC09002024B6000024B6000057
:100100000000000010B501F09BF910BDF0B5DE460F
:1001100057464E464546E0B587B003900D00049221
:10012000984610AB1B889A4611AB1E884346CC18E4
:10013000A4B2130053449FB20097230000F084FD43
:10014000002806D107B03CBC90469946A246AB4673
:10015000F0BDAB199BB29B46049B9B199BB21A0046
:10016000A41BA4B2013CA3B20593BC1BA4B2013CE6
:10017000A4B202230093330091465946039F3800EE
:1001800000F03DF90123009333004A4605993800F9
:1001900000F035F90423009333002200594638005B
:1001A00000F02DF908230093330022000599380050
:1001B00000F025F941468F1BBFB2BF1BBFB25146AD
:1001C0008C1BA4B2A41BA4B259464B1C99B28B46FB
:1001D0004A46531C9BB29946022F15D8022CB1D91E
:1001E000023CA4B24646013EB6B223004A4629006C
:1001F000039F380000F0F0FCAD19A9B223004A4675
:10020000380000F0E9FC9DE7023FBFB25246013AD8
:1002100093B29A463B00049E3200039800F0D4FC4F
:10022000330053449AB23B005946039800F0CCFC8B
:10023000D4E710B582B003681B7C5943C90089B26A
:10024000446BA44661440091002100F073FF02B0AA
:1002500010BDF0B5C64600B506003823C75C0133B3
:10026000C55C03685B7C984600242A0021003000AE
:10027000FFF7DFFF0134E4B20135EDB2A74201D947
:10028000A845F2D804BC9046F0BD10B503681B7CAD
:100290003822825C5A43D200406B002105F07EFF79
:1002A00010BD10B50400FFF7D4FF200000F074FF6C
:1002B00010BDF0B5CE4600B582B001900E0015001D
:1002C0001C0008AB1B88994609AB1F78FB0709D4B3
:1002D000BB0717D43B0726D47B0735D402B004BC38
:1002E0009146F0BD4B469A1A92B2611889B200F05D
:1002F0007BFC4B469A1B92B2611989B2019800F0BF
:1003000073FCE5E74B465A1B92B2A11B89B20198D8
:1003100000F06AFC4B469A1B92B2611B89B20198AD
:1003200000F062FCD6E74B465A1992B2A11989B285
:10033000019800F059FC4B46F21892B2611989B24B
:10034000019800F051FCC7E74B465A1992B2A11B25
:1003500089B2019F380000F047FC4E44B2B2611BE5
:1003600089B2380000F040FCB8E7F0B5DE465746E9
:100370004E464546E0B585B00290039192461F0077
:100380000EAB1B789B460123DB1B1BB29946FB037C
:10039000DB1B5D002DB25B46019300920B003A001F
:1003A0000021FFF786FF00260124A84625004C46C1
:1003B00010E00136B6B20235ABB21DB21C1924B240
:1003C0005B46019353460093039B3A003100029829
:1003D000FFF76FFFBE420BD2002CEADB013FBFB23A
:1003E000434602339BB21AB290461C1924B2E0E78E
:1003F00005B03CBC90469946A246AB46F0BDF0B570
:1004000085B003900E0017001D000AAB1C784B1935
:100410009BB2A81880B201339BB2521B92B2491B07
:1004200089B2013080B20090039800F00DFC0028E2
:1004300001D105B0F0BD00942B003A0031000398C3
:10044000FFF793FFF5E700000823037000487047AB
:10045000E409002070B584B004000E00009313007E
:10046000084A094900F064FF0F256D442800FFF792
:10047000EBFF01002A780096044B200000F053FDAA
:1004800004B070BD6D1000007D120000550D00001D
:10049000405C70474118087800024B78C01880B261
:1004A00070470020704770B504000D00002128003F
:1004B000FFF7EEFF207001212800FFF7E9FF6070D1
:1004C00002212800FFF7E4FFA07003212800FFF7B6
:1004D000DFFFE07004212800FFF7DAFF207105211B
:1004E0002800FFF7D5FF607106212800FFF7D0FF35
:1004F000A07107212800FFF7CBFFE0710821280039
:10050000FFF7C6FF207209212800FFF7C1FF6072C4
:100510000A212800FFF7BCFFA0720B212800FFF77B
:10052000B7FFE0720C212800FFF7B2FF20730D2106
:100530002800FFF7ADFF60730E212800FFF7A8FF2A
:10054000A0730F212800FFF7A3FFE07310212800FC
:10055000FFF79EFF207411212800FFF79BFF6082A8
:1005600013212800FFF796FFA08215212800FFF72E
:1005700091FFE08270BDF0B50500067B0768387812
:100580003041C4B27218D2B2072A0AD908239B1B81
:10059000DBB27C1C2C607C789C400443E4B2083ABB
:1005A000D2B201238B40013B234018002A73F0BDD7
:1005B00070B50500040060340166002323737833AE
:1005C000C15C2000FFF7D7FFA0727923E95C20000F
:1005D000FFF7D1FFE0729223EB5CA3735A425341C1
:1005E000E37370BD10B50C00FFF7C5FF013CE4B22A
:1005F0000123A340C01A40B210BD012B09D0002B2B
:1006000004D0022B08D0401A80B201E0801880B2DA
:100610007047401880B2FBE7801A80B2F8E7012BE0
:1006200009D0002B04D0022B08D0801880B201E042
:10063000401880B27047801A80B2FBE7401A80B23F
:10064000F8E7F0B5DE4657464E464546E0B589B078
:100650009246030060331A7A91465B7A0E000500D9
:100660001F00D04629E006962B0060339888DA8870
:1006700093464A4669460A736A460C2151567AB235
:100680001B7C039304920591FFF7C9FF0790039B1E
:10069000049A05995846FFF7B0FF4346002B16D140
:1006A0002B0060335B7B002B20D0A6422DD3361B62
:1006B000F6B20137FFB2002399462B0060339C7AD3
:1006C0004B46E41AE4B2A642CDD30694CCE72B0005
:1006D00060339A7B9223EA546B461B8B039A0092F9
:1006E00002000799280000F008FADEE72B006033CB
:1006F000DA7B9223EA546B461B8B039A009202002A
:100700000799280000F0F9F9CFE72F0032004A449A
:100710003B0060331A726A46127C5A7209B03CBCC4
:1007200090469946A246AB46F0BDF0B5D6464F4638
:100730004646C0B586B0040007006037FFF738FFB3
:100740006B23E35698467A23E15C3800FFF74AFFB3
:1007500002907B23E15C3800FFF744FF05007C2317
:10076000E15C3800FFF73EFF03900A23FB569946F1
:10077000002B5BDD4544EDB26D426BB21A003D7C4F
:10078000B8882B0005920299FFF749FF8246049032
:10079000B880F8882B00059A0299FFF72EFF020017
:1007A000F880012D49D0002D05D0022D55D0032D04
:1007B00067D0534607E04B4669460B810B8953448B
:1007C0009BB2404480B200900499200000F03CFAB3
:1007D00000282BD02300603300221A725A7276232D
:1007E000E15C3800FFF7C7FE06007723E15C3800C4
:1007F000FFF7C1FE0500002231002000FFF721FFB6
:10080000012229002000FFF71CFF01213800FFF71B
:10081000B2FE0028EFD1230060335B7A5BB29845CB
:10082000DDDC230060339A7B9223E254039806B008
:100830001CBC90469946A246F0BD53464146591A03
:1008400089B201315D1CABB24D466E4635813689A9
:10085000801980B289B20491B5E74B466A4613818C
:1008600011895346591A89B201315D1CABB2424617
:10087000821A92B20132013080B292B289B20491EE
:10088000A1E755464544ABB24A4669460A810A8902
:10089000821A92B20132013080B292B293E770B5FF
:1008A0000E00846D1734FF2914D860290AD98823D3
:1008B000C35AE4186378002B28D02278964207D0D8
:1008C000E418F7E74029F5D98623C35AE418F1E77D
:1008D000A01C1CE08A23C05A2418250000212800EF
:1008E000FFF7D8FD241802212800FFF7D3FD0435B7
:1008F0008642F3D823781B026278134308D09E42C5
:1009000002D0A378E418F5E7E01C00E0002070BDF9
:100910000020FCE710B504006420215266216252D9
:1009200019002000FFF7BBFF002805D001002000C0
:10093000FFF7FBFE80B210BD0020FCE7F8B5040015
:100940000D0016001F007023C35C012B11D0002B7B
:100950000AD0022B12D0032B15D03B003200290005
:100960002000FFF7D7FFF8BDC36D98473618B6B221
:10097000F3E7C36D98472D1AADB2EEE7C36D984704
:10098000361AB6B2E9E7C36D98472D18ADB2E4E761
:10099000F0B5C64600B504000F0016001D0000F0BB
:1009A000F1FA0023984604E03F18BFB2404483B2F6
:1009B00098462978200063689847124B98421CD0CB
:1009C0000135114B9842F4D0030032003900200069
:1009D000FFF7B4FF7023E35C012B08D0002BE3D0BA
:1009E000022B07D0032BE1D1361AB6B2DEE7361858
:1009F000B6B2DBE73F1ABFB2D8E7404604BC904628
:100A0000F0BDC046FFFF0000FEFF000010B5024C25
:100A10004460FFF7BDFF10BD6D0F000030B5836D62
:100A2000002B1DD08123C1560D33C1540C3BC2563F
:100A30000D33C254023BC35C002B11D0012B10D0EC
:100A40007E23C356802404571D19A94204DADBB261
:100A5000E1B25B188E214354A24201DD8F23C454BE
:100A600030BD8233C356994201DA8E214354842328
:100A7000C3569A42F4DD8F228354F1E7014BC365DC
:100A80007047C046A304000010B50400836D8B427C
:100A900006D081657430FFF706FD2000FFF7BEFF2A
:100AA00010BD30B505880C882C19A4B2A54203D915
:100AB0009D4210D25C1EA4B29D420ED294420ED929
:100AC000954200D32A009C4200D8230002809B1A42
:100AD0000B80012002E01500EEE7002030BD002071
:100AE000FCE730B583B006AC2578C48F121B92B2F8
:100AF000C46A0095A04703B030BD70B584B004004F
:100B000008A805780E206844018003A90A800A22FB
:100B10006A4413808C23E35C002B15D01388002BD0
:100B200012D0012B03D9022D10D0032D14D0012394
:100B30001D4032D14B33E25A03AB1B889A4203D893
:100B40004E22A25A93420ED304B070BD0288D31A2B
:100B50009BB201330380EAE703A90A88D31A9BB248
:100B600001330B80E3E74A23E35A4822A25A0A21C1
:100B700069440E206844FFF794FF0028E4D0236BFB
:100B80009E680A236B441B8803AA12880E216944BD
:100B9000098800952000B047D6E74823E25A3A3B3F
:100BA0006B441B889A42CFD84A22A25A9342CBD296
:100BB0004E23E35A4C22A25A0A21694403A8FFF7A4
:100BC00070FF0028DBD1BFE710B582B0002400948D
:100BD000FFF793FF02B010BD10B582B0012400945E
:100BE000FFF78BFF02B010BD00B583B04C23C35A92
:100BF00093420BD84E23C35A9A4207D24823C35A72
:100C00008B4203D84A23C35A994201D303B000BD93
:100C1000002300930133FFF770FFF7E78A4205D204
:100C200083420BD89A420BD9012008E0834209D9AC
:100C30009A4201D8002002E0012000E00120704724
:100C40000020FCE70020FAE770B506000C001D004C
:100C500004AB1B884E21415A4C20305AFFF7DEFF6F
:100C6000002807D04A23F15A023BF05A2B002200F9
:100C7000FFF7D4FF70BD0000F0B5DE4657464E4684
:100C8000C0B582B0009017001E000AAB1C88B142AC
:100C900029D98B1B9BB29946A74228D93B1B9BB2F3
:100CA0009B46D94527D35B46CB4699462300340063
:100CB0001E003B000F00190000239A46A74205D8EA
:100CC00033000E00190023003C001F005B465D0846
:100CD0002DB28E4212D2012301931D4B9F421ED191
:100CE000013FBFB21BE0731A9BB29946D4E7E31BE6
:100CF0009BB29B46D5E701239A46DFE701235B427F
:100D00000193EAE7220031000098FFF76DFF4B46A0
:100D1000ED1AABB21DB2002D0CDB0134A4B2A74218
:100D20000FD35346002BEDD1320021000098FFF77E
:100D30005BFFECE76A469288B618B6B25B441DB218
:100D4000EBE702B01CBC91469A46A346F0BDC046F4
:100D5000FFFF0000F0B5C64600B5884606AC277810
:100D6000072414400125A540EDB29226865DB446C5
:100D7000012E1FD90026614601291DD007218A4373
:100D800094460268127C61464A4392B24244110082
:100D9000426B94466144002F18D10A783243D2B294
:100DA0006A400A700131013B9BB2002BF5D104BCB3
:100DB0009046F0BD2E00DEE70025DFE7012617E0B4
:100DC0007600F6B26D00EDB2002BF0D00A78324317
:100DD000D2B26A400A70013407221440013B9BB230
:100DE000002CEDD1428F89189222825C012AE5D92C
:100DF000012AE9D00125E7E7F0B501683823C45C92
:100E0000A3B2DA0082870A7CD20042873922865C4C
:100E1000B7B2FA00C287A4194D7CAC4201DDEB1BCE
:100E20009BB2DB009BB240240253D3184222835270
:100E30008A8A4423C252CA8A0233C252F0BD10B514
:100E4000FFF7DAFF10BD10B582B004005223C35A79
:100E50005422825A5021415A5620205A0090200094
:100E6000FFF7F2FE002823D001228C23E254443BFA
:100E7000E25A0833E35A9A4201D24822A3524A2343
:100E8000E25A0833E35A9A4201D94A22A3524C2328
:100E9000E25A0833E35A9A4201D24C22A3524E231B
:100EA000E25A0833E35A9A4205D94E22A35202E08D
:100EB00000228C23E25402B010BD10B5002248235A
:100EC000C252043BC25A0633C2520A3BC25A0C33C6
:100ED000C2520A3BC25A0C33C252FFF7B4FF10BDD4
:100EE00030B583B006AC25784624045BA21A92B2D2
:100EF000EC0706D4013A92B20095FFF7F2FD03B079
:100F000030BDD21A92B2F7E710B5002350228352B7
:100F100004328352013B023A835204328352036B00
:100F20005B68984710BD70B5040004980025A5655E
:100F3000E36261633823E2540133E5543433E5540A
:100F40002433E554043BE5548C3B9222A3540132F4
:100F5000A35420630368200098472000FFF7D4FFC4
:100F60002000FFF78BFD7023E55470BD002901D1EF
:100F7000034870470A2901D088B2FAE70048F8E729
:100F8000FFFF000000222623C254704710B50A005C
:100F9000046900232021A04710BD10B51300046987
:100FA0000A001721A04710BD00B583B06B46DA1DBB
:100FB00011700121FFF7F1FF03B000BD10B50A0069
:100FC000C46800231521A04710BD10B50A00C468ED
:100FD00000231621A04710BD10B51300C4680A00F5
:100FE0001721A04710BD10B5C468002300221821A6
:100FF000A04710BD10B5C468002300221921A047E6
:1010000010BD70B582B006000C002178651C172950
:1010100018D00CD919291FD9FE2924D12A786B465A
:10102000DA712921300000F067F90234EDE7152963
:1010300019D32A786B46DA7100233000F568A84787
:101040000234E2E763786A46073213700121300008
:10105000FFF7C2FF0234D8E7002300223000F46813
:10106000A0472C00D1E702B070BD0000F0B583B0FE
:1010700004000D00160001930B00143BDAB2052AA0
:1010800020D89300104AD3589F460021FFF77EFFD7
:1010900031002000FFF788FF012011E00021FFF759
:1010A00075FF31002000FFF77FFF012008E00121DC
:1010B000FFF76CFF2769019B320029002000B84729
:1010C00003B0F0BD0020FBE7ECAE000001608A7CBD
:1010D0002223C254704770B5040000230022282147
:1010E0004569A8470023002214212000E568A8478D
:1010F00001224B21200000F0FFF823681A792921F2
:10110000200000F0F9F800224B21200000F0F4F854
:1011100023681A792921200000F0EEF801224B21E2
:10112000200000F0E9F823685A792921200000F016
:10113000E3F870BD10B582B06C466171A271237185
:10114000049B009384686B4601220F21A04702B0E4
:1011500010BD10B58468002300220921A04710BDEE
:1011600010B58468002300220A21A04710BD10B5E5
:101170000A00846800230B21A04710BD10B50A00A7
:10118000846800230D21A04710BD10B50A008468B3
:1011900000230E21A04710BD10B584680023002253
:1011A0001021A04710BD0000F0B5C64600B50500EF
:1011B00014001F000E294DD00F2903D00B293DD05C
:1011C000002038E0FFF70FFF7E79F600F6B2222309
:1011D000EB5CF618F3B29846190910231943C9B20B
:1011E0002800FFF7EBFE0F21434619402800FFF7C8
:1011F000E5FEBB79502149421943C9B22800FFF7E7
:10120000DDFE3E79F600F6B23F684346F318842BC4
:1012100004D97C2676424346F61AF6B23A003100EB
:101220002800FFF7D9FE013CE4B2002CF6D12800DB
:10123000FFF7E0FE012004BC9046F0BD002A04D177
:101240000C49FFF7DEFE0120F5E70B49FFF7D9FE59
:101250000120F0E7FFF7C7FE81212800FFF7AEFE6F
:10126000A1082800FFF7B1FE2800FFF7C3FE012008
:10127000E1E7C04604AF00000CAF000070B5050008
:101280000C001600FFF790FF00282AD10A2C09D085
:101290000D2C10D0092C25D113492800FFF716FF7B
:1012A00001201FE02800FFF716FF10492800FFF774
:1012B000A8FE012016E0002E09D00D492800FFF7F6
:1012C000A0FE2B68DA7C2223EA5401200AE00949B7
:1012D0002800FFF796FE2B689A7C2223EA5401200F
:1012E00000E0012070BDC04648AF000024AF000000
:1012F0001CAF000014AF000010B544690023A047E4
:1013000010BD00207047000000230360074A826080
:10131000C260026142612322835403328354836199
:10132000FF33023A8354043283547047031300009E
:10133000F8B504000F0016001D00FFF7E5FFA760D9
:10134000E6602561069B63612000FFF702FFF8BDA0
:10135000FEE7000010B5124A124B9A4209D0114B19
:101360000F4A03E011681960043304320E498B42BE
:10137000F8D30E4B02E000221A6004330C4A934269
:10138000F9D30C4AFF210C4B8B4393600B4A5168F5
:1013900080230B43536004F09BFE02F03BF9FEE711
:1013A00024B6000000000020C8090020C809002061
:1013B000A810002000ED00E0000000000040004107
:1013C00070B5164A164B5A8002218423C022D205DA
:1013D000D150144BA8221449995014499950C12056
:1013E0001A5C04218A431A54195C0125A94301247B
:1013F0002143C9B21954B022995CB23801409954C2
:10140000C8215A5CAA432243D2B25A5414395A5CB6
:1014100082435A5400F09AF870BDC0460340000061
:10142000000C00400044004102000240000002C0E5
:1014300010B5024800F048F810BDC04610E000E0CA
:10144000F0B5C64600B500F033FBC022D2059424A7
:101450000120105188255051174BA821174E5E507E
:10146000C0263606B0465E50C026B4469E5D864312
:101470006746DE55802616515651114E5E5046463F
:101480005E500737DE5D8643DE55802676001651B6
:1014900080263606165156518022D2055A50094AE6
:1014A0005A5037315A5C82435A54FFF789FFFFF78D
:1014B000BFFF04BC9046F0BD004400410100004065
:1014C00080000040008000C010B5024B186001F0A1
:1014D00007F910BDE40D002010B5044B1C6800F0A6
:1014E000D7FA0100200001F0FFF810BDE40D002044
:1014F00010B5044B1C6800F0D5FA0100200001F083
:10150000F3F810BDE40D002070B50325002407E0BA
:101510000D4AB358002B00D0984770BD013AD5B2A0
:10152000AC42FAD82B195B10DAB2022AF5D8FF21A7
:101530000B40DE000449891949688142E8D0EDD2A8
:101540000132D4B2ECE7C046E80D002010B500230C
:1015500009E0084AD9005018012464424460002080
:10156000885001339BB2022BF3D9034800F0B6FA3E
:1015700010BDC046E80D002009150000F0B5D646A4
:101580004F464646C0B584B00023022B0CD8DC0081
:10159000324A12195268824202D00133DBB2F4E7B8
:1015A0002E4BE150012600E0002600290CD0002E31
:1015B00042D10023022B11D8DA00284D5259002ABB
:1015C00007D00133DBB2F5E7002E40D000F0D6FAA9
:1015D00037E0DC0061512C1960600126002201E037
:1015E0000132D2B2022A27D8022B25D801931B49F7
:1015F000DC000C196768D400091949688F42EFD2E2
:101600004C1CEDD002A98C46144CA046D400A14637
:1016100044464C44654682CC82C50199C9008A463D
:101620004946414444465444A0CCA0C14546554493
:10163000614690C990C5D3E7002E0BD0012100F080
:101640009DFA04B01CBC90469946A246F0BD0D2000
:101650004042F6E70D204042F3E7C046E80D002087
:1016600010B584B01438848B01AB1C801400029236
:10167000064A5A800391190000F048FD002802D163
:10168000200004B010BD0400FAE7C0460080FFFF50
:1016900010B584B01438848B01AB1C801400029206
:1016A000064A5A800391190000F030FD002802D14B
:1016B000200004B010BD0400FAE7C0460180FFFF1F
:1016C00070B504000D00431E9841C0B25E22074968
:1016D00000F0C8F92900200000F08CFC002803D19C
:1016E000034BA361034B636170BDC04660AF000054
:1016F000911600006116000010B500F0CDFC10BD81
:101700008905890D8023DB001A400A43828310007B
:101710007047000070B586B0040016001D006B46CF
:10172000D9710733828B03A90A8001224A60002203
:101730004A808B6000F0EAFC002801D006B070BD42
:1017400003A9044B4B808E604D60200000F0DEFC4E
:10175000F4E7C0460180FFFF1430086000207047A6
:1017600070B504000D00160000280ED000290AD024
:1017700001203422064900F075F92368320029005F
:101780002000984770BD0020F3E70020F1E7C04635
:101790007CAF000070B504000D00160000280ED0CC
:1017A00000290AD001203D22064900F05BF9636858
:1017B000320029002000984770BD0020F3E7002088
:1017C000F1E7C0467CAF000070B504000D000028B2
:1017D00017D0002913D0012040220B4900F042F914
:1017E0006560201D290000F09DFD002806DB074BE9
:1017F000A382074B2361074BE360002070BD0020EC
:10180000EAE70020E8E7C04690AF00000080FFFF55
:10181000AD1800007918000010B50400431E98416F
:10182000C0B25722034900F01DF9201D00F054FEFC
:1018300010BDC04690AF000030B587B004000D0069
:10184000002815D0002911D00120B322094900F049
:1018500009F92B6803936B680493AB6801930593B4
:10186000201D03A900F050FE07B030BD0020ECE7BA
:101870000020EAE790AF000070B584B004000E00CD
:101880001500431E9841C0B2A322074900F0EAF8B0
:1018900020000C38002302930196039501A9FFF75D
:1018A000CBFF04B070BDC04690AF000070B584B0EF
:1018B00004000E001500431E9841C0B2872207495C
:1018C00000F0D0F820000C38029600230193039515
:1018D00001A9FFF7B1FF04B070BDC04690AF000092
:1018E00070B504000D0000280CD0002908D001209C
:1018F000BD22054900F0B6F80C342C60002070BD04
:101900000020F5E70020F3E790AF0000F8B50500F0
:101910000E001700002823D0002923D0002A23D14D
:101920000020F122114900F09DF82C00083420001D
:1019300000F04FFB0028F8D00025715D200000F07A
:1019400040FB200000F045FB0028FAD00135BD42E5
:10195000F3D3200000F042FB0028FAD02800F8BDA5
:101960000020DEE70020DCE70120DAE7ACAF000072
:10197000F8B5CE46474680B5051E884691461FD02D
:1019800000291FD0002A1FD10020862252000F49B3
:1019900000F068F800262C000834200000F024FB3A
:1019A0000028F8D043469F19200000F00EFB387045
:1019B00001364E45EFD330000CBC90469946F8BD39
:1019C0000020E2E70020E0E70120DEE7ACAF000006
:1019D00070B504000D00002814D0002910D001209B
:1019E0003422094900F03EF820000830290000F0B8
:1019F000CDFA002803D1054B6360054B236070BD11
:101A00000020EDE70020EBE7ACAF0000711900000B
:101A10000D19000010B50400431E9841C0B25322B6
:101A2000044900F01FF82000083000F0C1FA00203F
:101A300010BDC046ACAF000070B504000D0000281A
:101A40000BD0002907D001206922054900F00AF8CF
:101A50002C60002070BD0020F6E70020F4E7C046AF
:101A6000ACAF0000002800D100BE70470300064A5A
:101A70001268002A04D0044A1068C3181360704723
:101A80000249014A1160F6E7000E0020A83000204C
:101A900010B503011B1A580101380A2101F074FF27
:101AA000013010BD03011B1A5A01642050437047D6
:101AB00010B5094A536806210B43536000F002F940
:101AC00000F094FD082000F0DDF800F0C3FDF720E1
:101AD00000F0D8F810BDC04600400041234B5B78B1
:101AE000DB09FBD1214B5B78DB09FBD11F4B1B785A
:101AF0009B070AD500221D4B1A701C4B5B78DB0933
:101B0000FBD11A4B5B78DB09FBD10122174B1A7012
:101B1000164B5B78DB09FBD1144B5B78DB09FBD1FF
:101B2000124B00229A70A022D2005A608022D20169
:101B30005A6190229A610E4ADA611A7802210A43A8
:101B4000D2B21A70094B5B78DB09FBD1094B10222A
:101B500080215A50BFF34F8FBFF36F8F0131FF3198
:101B60005A501A60044B186000207047001800405B
:101B70000A02000100E100E0040E002030B500235D
:101B8000032B0BD8DC00104A12195268824202D093
:101B90000133DBB2F4E70C4BE25C00E0FF22FF2AEA
:101BA0000ED0002906D101239340084A93601361A7
:101BB000002030BD01239340044AD3600020F8E7A1
:101BC0000D204042F5E7C046E0AF0000001800409D
:101BD000F0B583B0274B1A69D9680A400192019A7F
:101BE0001A61254B1868431E9841C0B2D22223497E
:101BF000FFF738FF01256D4231E0DB00204AD318A2
:101C00005D686B1C03D01C4B1B68280098470122A1
:101C1000A240019B93430193019802F085F801389B
:101C200044B2631C14D00326002001E00139CEB277
:101C3000B042E6D833185B10D9B2FF221340DF0060
:101C40000F4ABA5CA242D8D0F0DA0131C8B2EFE74D
:101C5000084B1A69D9680A400192019A1A61019BDE
:101C6000002B05D0019802F05FF8013844B2D8E7A4
:101C700003B0F0BD00180040040E0020C8AF000003
:101C8000E0AF0000C30709D50A4B802252009A60DA
:101C9000094A5A60074B5B78DB09FBD1030708D57B
:101CA000044B064A9A60064A5A60024B5B78DB098D
:101CB000FBD17047000C0040000701000304000046
:101CC00003040100064B1A7AD2B21A725A7AD2B2BF
:101CD0005A729A7AD2B29A72DA7AD2B2DA727047B9
:101CE00000040040024B9C466044800AC0B270472A
:101CF00000F8FFBD038ADB0B08D1036802221343FF
:101D00000360038ADB0BFCD10020704704204042B3
:101D1000FBE7000010B5FFF7E5FF030000200028F7
:101D200006D0074A07490020FFF79CFE002010BD9F
:101D300002010549525C9342F9D00130C0B2EEE78E
:101D40002A02000000B000004CB0000010B50400F2
:101D5000FFF7E0FF238ADB0BFCD1238ADB0BFCD1EE
:101D600023689B0707D500232360238ADB0BFCD164
:101D7000238ADB0BFCD101232360238ADB0BFCD1FC
:101D8000238ADB0BFCD102010B4B9B185B682360A1
:101D9000238ADB0BFCD10201074B9B189B68636015
:101DA000238ADB0BFCD10001034B18188389638164
:101DB000837B2372002010BD4CB0000010B5FFF7EC
:101DC00091FF01000020012809D843001B18DA0008
:101DD000064BD35C994208D00130C0B2F3E7044A05
:101DE00004490020FFF73EFE002010BD1CB000009B
:101DF0006603000000B0000070B505000469431ED2
:101E00009841C0B25C4A5D49FFF72CFE63685C4AAA
:101E100013406360238ADB0BFCD12A8852006B8855
:101E200001210B401343DBB22375238ADB0BFCD16A
:101E30002E69544AB37BDBB21800511E002A02D02F
:101E40000A009B07F6D0238ADB0BFCD1238A9BB2C6
:101E5000C20750D59A0710D50122A2736A88802143
:101E600049010A436A806A8847490A406A80DB0759
:101E700000D47CE00520404263E05B070BD4686837
:101E800000282DD16B881BB2002B20DB6B883E4ACB
:101E900013406B8055E06B68002B04DD6B8880225B
:101EA000520113436B806B881BB2002B06DB6B88DF
:101EB000354A13406B800220404242E06268C023F2
:101EC0009B0213436360238ADB0BFCD1EFE762685C
:101ED000C0239B0213436360238ADB0BFCD1D5E74D
:101EE000AB681B782376AB680133AB606B68013B52
:101EF0006B60002025E082073CD56A68002A31D05B
:101F00005B072FD4013A6A60002A07D162688023F8
:101F1000DB0213436360238ADB0BFCD16B68002B6D
:101F200007D16B881BB2002B0CDB6B88164A134061
:101F30006B80AB685A1CAA60227E1A700223A373BE
:101F4000002070BD6368104A13406360238ADB0B76
:101F5000FCD16268C0239B0213436360238ADB0BBE
:101F6000FCD1E2E70223A37302204042E9E7042008
:101F70004042E6E70020E4E78105000000B00000F1
:101F8000FFFFFBFFFFFF0000FFFEFFFF70B5050036
:101F90000C00431E9841C0B2A1220449FFF762FD24
:101FA0002C602000FFF7D2FE70BDC04600B00000DC
:101FB0000268136802210B431360138ADB0BFCD108
:101FC0007047036889B2198370470368188BC0B2E1
:101FD00070470368987B01231840704703689B7B18
:101FE0005B0801201840704703689B7B9B08012019
:101FF0001840704770B506000C000800FFF7DEFEC1
:1020000005003000431E9841C0B2204A2049FFF726
:1020100029FD3461238ADB0BFCD1238ADB0BFCD145
:1020200023689B0707D500232360238ADB0BFCD1A1
:10203000238ADB0BFCD101232360238ADB0BFCD139
:10204000238ADB0BFCD16B005B19DA00114B9B1868
:102050005B68022293432360238ADB0BFCD16B0075
:102060005B19DA000B4B9B189B686360238ADB0BC0
:10207000FCD1084A6B005819C10008005118898921
:1020800061811218138AF381002070BDD70400000B
:1020900000B000001CB0000070B506000469184DC7
:1020A000431E9841C0B2A122D2002900FFF7DAFCFA
:1020B0003069431E9841C0B2124A2900FFF7D2FC92
:1020C0002368022213432360238ADB0BFCD1042004
:1020D0000D49238ADB0BFCD1228A120903331340FA
:1020E000012B08D001390029F3DC0138002804D085
:1020F00010232382ECE7002070BD06204042FBE75E
:1021000000B0000009050000FFFF0000F8B5050061
:102110000E0004697D4F431E9841C0B27C4A3900CD
:10212000FFF7A0FC2869431E9841C0B2794A3900E4
:10213000FFF798FC3000431E9841C0B2764A390040
:10214000FFF790FC6B88DB0500D5DCE0728880230C
:102150005B009C461A4372802A00310089C989C2FB
:102160006268634613436360238ADB0BFCD128005B
:10217000FFF742FE002800D17DE06B88674A1340DC
:102180006B80F8BD0520404286E073881BB2002BAF
:1021900004DB6B88614A13406B80F2E76268C023FE
:1021A0009B0213436360238ADB0BFCD1F1E75B07DF
:1021B0000BD4686800282DD16B881BB2002B20DB64
:1021C0006B88564A13406B8055E06B68002B04DD2A
:1021D0006B888022520113436B806B881BB2002BEB
:1021E00006DB6B884D4A13406B800220404242E080
:1021F0006268C0239B0213436360238ADB0BFCD11C
:10220000EFE76268C0239B0213436360238ADB0B02
:10221000FCD1D5E7AB681B782376AB680133AB60A4
:102220006B68013B6B60002025E08A0769D56A680E
:10223000002A5ED05B075CD4013A6A60002A07D1AD
:1022400062688023DB0213436360238ADB0BFCD1CB
:102250006B68002B07D16B881BB2002B39DB6B88B6
:102260002E4A13406B80AB685A1CAA60227E1A70FB
:102270000223A37300206B88DB0500D481E72F695C
:10228000274ABB7BDBB21900501E002A00D179E738
:1022900002009B07F5D00020002800D075E7238AB4
:1022A000DB0BFCD1238A9BB2CA07BED59A0700D4A8
:1022B0007DE70122A2736A88802149010A436A806E
:1022C0006A8816490A406A80DB0717D50520404214
:1022D000D1E76368114A13406360238ADB0BFCD1AA
:1022E0006268C0239B0213436360238ADB0BFCD12B
:1022F000B5E70223A37302204042BCE7042040421A
:10230000B9E70020B7E7062040423AE700B00000F6
:102310009B0500009C0500009D050000FFFEFFFFDF
:10232000FFFF000070B506000C000800FFF7DAFCA4
:10233000002301E00133DBB2022B08D819015E4A09
:102340005218D27B9042F5D15B4B5D1800E000251E
:10235000002E00D16AE0002C00D165E00120574A30
:102360005749FFF77FFB002D00D1A2E0238ADB0B4A
:10237000FCD1238ADB0BFCD123689B0707D5002304
:102380002360238ADB0BFCD1238ADB0BFCD10123E6
:102390002360238ADB0BFCD1238ADB0BFCD1346066
:1023A0002B786A7812021A43AB781B041A43EB7835
:1023B0001B0613431C221340082B39D0002C00D1DC
:1023C00073E0002D00D16EE001203E4A3C49FFF74A
:1023D00049FB2B786A7812021A43AB781B041A4324
:1023E000EB781B061343384A13402360238ADB0B28
:1023F000FCD12B796A7912021A43AB791B041A4378
:10240000EB791B061343314A134080229202134397
:1024100063602B7BA3726B7B23722B795B0746D1A6
:1024200001233371002070BD002098E7002096E75B
:10243000002C36D0002D32D00120254A2049FFF74C
:1024400011FB2B786A7812021A43AB781B041A43EB
:10245000EB781B0613431C4A13402360238ADB0BD3
:10246000FCD12B796A7912021A43AB791B041A4307
:10247000EB791B061343174A134363602B7A6A7A7E
:1024800012021A43AB7A1B041A43EB7A1B0613435E
:1024900063616B7B2372238ADB0BFCD1BDE70020D9
:1024A000CBE70020C9E700208FE700208DE702235B
:1024B000B7E70D204042B6E75CB00000A30800007B
:1024C00000B0000072080000FCFEFFFFBF3FFDFFF0
:1024D000830800004000020010B5041E0DD0036800
:1024E000002B08D00120064A0649FFF7BBFA2068F6
:1024F000FFF700FC10BD0020F5E70020F3E7C04621
:102500000A09000000B0000070B588B00D00046832
:102510000B6803934B680493002305930693067995
:10252000002814D0002C10D001202D4A2D49FFF78F
:1025300099FA238ADB0B4FD1238ADB0BFCD123686A
:102540009B0718D41420404244E00020EDE700200F
:10255000EBE7002226E058780002014302330393A0
:102560000132059289B221830598AB68984202D363
:10257000069A934229D9A37BDBB25A07E9D5228B6D
:1025800092B20499002908D0481C04900A70012EC8
:1025900003D9881C0490120A4A70069A01920132EB
:1025A00006920122002ADFD10699059A9142DBD3D7
:1025B000DB07D9D5039B002B05D0591C0391197853
:1025C000012EC8D8CCE70849CAE7A37B9B07FCD0FB
:1025D0000323A37308B070BD04204042FAE7C0464D
:1025E000010A000000B00000FF010000164A116A55
:1025F000090C136A9B0F9B070904144801400B4305
:1026000013490B43136293691B0C1B04FE21C9037E
:102610000B400E210B439361137F11310B40137755
:10262000094BDB685B07FBD5074A936980210B43A5
:102630009361054BDB681B07FBD5034A136A8021B6
:102640000B4313627047C046000800400000FF0FB4
:10265000020300000222194B9A84184BDB68DB0648
:10266000FBD5174A154BDA62164B1B689B0E3F2BA6
:102670001BD09B02802292001343104A93620223D4
:102680009384938C5B0713D50C4BDA68D0231340EB
:10269000D02BF9D1094A938C80210B439BB29384B0
:1026A000094B5B78DB09FBD17047FC23DB01E4E7D6
:1026B000024BDB68DB06FBD5ECE7C04600080040B8
:1026C0000000010424608000000C0040024B034A1B
:1026D0005A6005221A60704710E000E0FFFFFF001B
:1026E00010B5FFF7F3FF10BD080E0BE00B4B0C48C5
:1026F00058609860094B1B68DB03FBD5094B9C466F
:1027000061441000421ED2B20028EFD1034B596041
:102710009960024B1B68DB03FBD5704710E000E0BB
:10272000FFFFFF00010000FF00B583B0064B1870EB
:1027300001A900230B700D334B701A338B700322E9
:1027400000F058FC03B000BD080E002010B582B0A8
:10275000010001AC002323706370064B187802233C
:10276000220000F071FC23781B026078184302B04D
:1027700010BDC046080E002070B504000120FFF710
:10278000E5FF00B2002836DD03F0C4F91E4A1F4BF6
:1027900002F0F6FB03F08AFA061C0220FFF7D6FFD0
:1027A00003F0B8F91A4A1B4B02F0EAFB03F07EFA79
:1027B000051C01F0C3FAA080301C02F08DF8608087
:1027C000291C301C01F0CCFD134901F0C9FD061C89
:1027D000A0601249281C01F05FFA002812D0E568B9
:1027E0000F49301C01F0BCFD011C281C01F07EFBD0
:1027F000E060012070BD03F08DF90A4A0A4B02F037
:10280000BFFBC7E70948F3E7B599547E63D9F13FA9
:10281000276D47C4D6F4F33FBD37863500A85E4622
:10282000B4A29139873553298FE1F13F00002F433E
:10283000024A1378013313707047C046090E002016
:10284000024A1378013313707047C0460B0E002004
:10285000024A1378013313707047C0460A0E0020F5
:1028600010B504493E20FEF789FE0348FEF7D4FF69
:1028700010BDC04651280000880E002010B5024946
:102880002820FEF77BFE10BD3128000010B502495C
:102890000A20FEF773FE10BD41280000024B187895
:1028A00000221A707047C0460B0E0020024B1878A9
:1028B00000221A707047C046090E002010B5094B5F
:1028C0001B78002B01D1002010BD00F0BFFD064B8E
:1028D00018600022034B1A708079431E9841C0B2E1
:1028E000F2E7C0460A0E0020D80E0020014B1868FF
:1028F0007047C046D80E002010B503000A000349F7
:1029000008681900FEF746FF10BDC046840E00207F
:1029100010B503000A00034908681900FEF720FFFC
:1029200010BDC046840E0020002805D1802252052B
:10293000C023DB055A61704780225205C023DB05A6
:102940009A61F8E700B583B06B46D91D0870034B58
:1029500018680122FEF704FF03B000BD840E0020BA
:1029600010B582B06B46DC1D00232370044B186841
:1029700001222100FEF70EFF207802B010BDC046F4
:10298000840E0020F8B5DE4657464E464546E0B573
:10299000504A136A0424234313624F4A4F4B5A8010
:1029A0004F4D50492800FEF70FFF4F492800FEF712
:1029B00097FF2800FEF730FFC022D2051023536195
:1029C00093604A4B4A499962C02109068B46996235
:1029D0004426985D012188430125A84645462843A1
:1029E000C0B29855123E985D0F25AC46A843032708
:1029F0003843C0B298552020506190603D4898629D
:102A00005846986245208146185C884345462843CD
:102A1000C0B24D465855985D363D28403025A946F0
:102A20004D462843C0B298550E36566032489862DB
:102A30003248986246201D5CA5431D541C5C8C43A3
:102A400045462C43E4B21C543324185D6546A84324
:102A50003843C0B21855802090616534165190619A
:102A60009060274CA0469C625C469C6247241D5D9A
:102A70008D431D5598255651103DA946565168362F
:102A8000204D9D515D469D51C625AA465D5D8D43F5
:102A9000AC46554667465F553B35FF35AC469827F3
:102AA000D5514D4667465751174F9F515D469D5131
:102AB000C927DE5D8E43DE559061906042469A6282
:102AC0009D621A5D8A431A553CBC90469946A246BF
:102AD000AB46F8BD000400400D400000000C004073
:102AE000C00E002000080042140F002000440041E6
:102AF000100000402000004040000240000002C0E2
:102B000080000040400000400002004010B503007B
:102B10000A00034908681900FEF722FE10BDC046EE
:102B2000140F002001235840C0B2002806D1802194
:102B300089009423C022D205D1507047802189009A
:102B40009823C022D205D150F7E7002805D14021B3
:102B50009423C022D205D150704740219823C0222F
:102B6000D205D150F8E700207047000010B51439A5
:102B7000CCB20C2C1FD8A100104841588F4691B2FE
:102B80001800FFF7C3FF012010BD0020FFF7CAFFA8
:102B90000120F9E7511E8A41D0B2FFF7D6FF01208C
:102BA000F2E70120FFF7BEFF0120EDE70020FFF76D
:102BB000B9FF0120E8E70020E6E7C0468CB000003E
:102BC00070B5C024E4050425A5610120FEF790FC42
:102BD00065611420FEF78CFC70BD0000F8B5DE4680
:102BE00057464E464546E0B5664A136A08218B466D
:102BF0000B431362644A654B5A80654C654920005B
:102C0000FEF7E2FD64492000FEF76AFE2000FEF7B1
:102C100003FEC025ED0501266E61AE605F4C604B82
:102C2000A362C0273F06A7624022A35CB3430121F1
:102C3000884641460B43DBB2A354103AA35C0F21F4
:102C40008A468B4303210B43DBB2A35402236B61FF
:102C5000AB60544BA362A7624121635CB34340461F
:102C60000343DBB26354A35C32390B4030210B4386
:102C7000DBB2A3548023DB026B604B4BA3624B4B54
:102C8000A3622232A35C042189468B43A354A35C34
:102C9000B3430343DBB2A354193AA35C51468B43BD
:102CA00002210B43DBB2A3544B466B61AB60404B3C
:102CB000A362A7620932A35CB343A354FFF780FF6A
:102CC00080235B05AB61AB608022D205A262394BE9
:102CD000A3625C21635CB343635480231B04AB6138
:102CE000AB60A262344BA3620539635CB3436354A7
:102CF0005B466B61AB60314BA362A7621439635CC6
:102D0000B3436354102355316B5010396B509833D3
:102D10002B49E150E750C420215CB1432154842168
:102D20008C466439604629502649E1502649E150D5
:102D3000C521675C484687436754675CB74367545F
:102D400061466A501849E1502049E1506346EA5013
:102D5000DE21635C0343DBB263549423EA50635C7B
:102D6000B34342461343DBB26354BF22A35C5146D4
:102D70008B43A354FFF774FD3CBC90469946A24692
:102D8000AB46F8BD000400400E400000000C0040BF
:102D9000880E0020000C0042840E002000440041F8
:102DA000010000400200004000000240040002C098
:102DB00004000040001000C0800000C00800004077
:102DC0001000004020000240000002C0004002C08D
:102DD000F0B5C64600B5304A136A40210B43136272
:102DE0002E4B2F4A5A802F4A5A802F4D2F492800A8
:102DF000FEF766FC2E4CCC22A35C04218B43A3542B
:102E0000A35C01208046834301273B43DBB2A354EC
:102E1000163AA35C0F26B34302200343DBB2A3544C
:102E2000CD20235C8B432354235C41468B433B439F
:102E3000DBB22354A35C0E310B4020210B43DBB2E9
:102E4000A3541C492800FEF787FC2800FEF754FC19
:102E5000C021C905842380204000C850A822164DF7
:102E6000A550164DA550C8502032A35C04252B4315
:102E7000DBB2A3549823C850A35C41468B433B4329
:102E8000DBB2A354143AA35CB343A354FFF7F6FC9C
:102E900004BC9046F0BDC04600040040000C004059
:102EA000114000000C430000A00E0020001800425A
:102EB00000440041E00E002000010240000002C07A
:102EC000F0B5CE4600B52C4A136A10210B431362AD
:102ED0002A4B2B4A5A802B4A5A802B492B48FEF703
:102EE000EFFB2B4C4822A35C042189468B43A3545F
:102EF000A35C0125AB4301273B43DBB2A354143A47
:102F0000A35C0F26B34303210B43DBB2A354492137
:102F1000635C484683436354635CAB433B43DBB22F
:102F20006354A35C3A390B4030210B43DBB2A3540A
:102F300018491648FEF710FC1448FEF7DDFB802206
:102F4000D200C023DB055A60134BA362134BA3626C
:102F50004A22A35C49468B43A354A35CAB433B4347
:102F6000DBB2A354153AA35CB343A354FFF78EFC22
:102F700004BC9146F0BDC04600040040000C004077
:102F80000F4000000C43000000100042E40E00203F
:102F900000440041800E002000040240000002C0F6
:102FA00070B50D00140001B2802212010548FEF731
:102FB000A7FBA2B2044B18682900FEF7D1FBC0435F
:102FC000C00F70BDE40E0020800E002070B50C0014
:102FD000150001B2064E802212013000FEF790FB70
:102FE0002B00220000213000FEF794FB70BDC0468C
:102FF000E40E002070B50D00140001B28022120111
:103000000548FEF77DFBA2B2044B18682900FEF7C5
:10301000A7FBC043C00F70BDA00E0020E00E002033
:1030200070B50C00150001B2064E8022120130006E
:10303000FEF766FB2B00220000213000FEF76AFB42
:1030400070BDC046A00E0020F8B50C0015001E0093
:1030500001B2064F802212013800FEF751FB330007
:103060002A0021003800FEF755FBF8BDA00E002015
:1030700070B51A4A136A20210B431362184A194B80
:103080005A80194C002219492000FEF7A1FC184B68
:103090005022995C0126B14301252943C9B29954B4
:1030A0003820195C413A914303221143C9B21954A3
:1030B00051215A5CB2432A43D2B25A541A5C423963
:1030C0000A4030210A43D2B21A540A492000FEF7BE
:1030D000B3FC2000FEF79EFC70BDC046000400401B
:1030E00010400000000C0040080F002000140042B7
:1030F00000440041DC0E002010B50020FFF714FC56
:1031000010BD10B50120FFF70FFC10BD10B5040075
:10311000FFF7F2FF7F202040FFF714FCFFF720FCB1
:103120000400FFF7EEFF200010BD70B505000C0095
:10313000FFF7E2FF802040422843C0B2FFF702FCC5
:103140002000FFF7FFFBFFF7DCFF70BD10B5FFF7B6
:1031500037FD1020FFF7DAFF04210120FFF7E5FF1C
:103160002720FFF7D3FF8F213C20FFF7DEFF302120
:103170006F20FFF7DAFF55215A20FFF7D6FF7021A5
:103180005C20FFF7D2FF2E20FFF7C0FF2D212F205C
:10319000FFF7CBFFD4213020FFF7C7FF88212E2077
:1031A000FFF7C3FF01210220FFF7BFFF002103202B
:1031B000FFF7BBFF80210420FFF7B7FF1021052098
:1031C000FFF7B3FF00210620FFF7AFFFE021192032
:1031D000FFF7ABFFE0211A20FFF7A7FFD021372030
:1031E000FFF7A3FF00212C20FFF79FFF04212D20D4
:1031F000FFF79BFFD9210720FFF797FF0021082049
:10320000FFF793FF00210920FFF78FFF3D20FFF715
:103210007DFF040002213D20FFF787FF1F211120C1
:10322000FFF783FF40212520FFF77FFF10210120BA
:10323000FFF77BFF200010BD10B5012808D05521F5
:103240005A20FFF772FF70215C20FFF76EFF10BD60
:103250005D215930FFF769FF7C215C20FFF765FF96
:10326000F5E7000010B50400304B1B78DBB2834259
:1032700044D0042842D883002D4AD3589F460120C9
:10328000FFF744FF41B21C2399430C200143C9B20C
:103290000120FFF74AFF274B1B78002B23D001208A
:1032A000FFF7CAFF1FE00120FFF730FF41B21C23E8
:1032B000994310200143C9B20120FFF736FF1D4B8F
:1032C0001B78002B0FD00020FFF7B6FF0BE001208A
:1032D000FFF71CFF41B21C23994308200143C9B2E8
:1032E0000120FFF722FF114B1B78002B04D1272070
:1032F000FFF70CFF0306F6D50C4B1C7010BD012028
:10330000FFF704FF41B21C23994304200143C9B2D3
:103310000120FFF70AFFE6E70120FFF7F7FE1C2375
:103320009843C1B20120FFF700FFDCE70100002055
:10333000C0B000000000002010B5134B187000282A
:1033400011D00F211320FFF7F0FE0F4B1B78012B3C
:103350000BD00E4B1B78802149421943C9B2112072
:10336000FFF7E3FE10BD1A21ECE71120FFF7CEFEB8
:1033700040B21F2101406020014349B2C9B211206F
:10338000FFF7D3FEEEE7C046000000200200002059
:1033900010B5012807D02420FFF7B8FE80B24042C4
:1033A00000B2401010BD01212230FFF7BEFE2320E5
:1033B000FFF7ACFE8307FAD5EDE770B504000D000A
:1033C0000020FFF74FFF2720FFF7A0FE0306FAD5E6
:1033D00000212520FFF7A9FE23783D2B01D93D23AD
:1033E0002370FFF789FE8020FFF7ACFA20780430C5
:1033F000C0B2FFF7A7FA6078FFF7A4FAA078FFF74A
:10340000A1FAE078FFF79EFAE079FFF79BFA2178BE
:103410002800FFF77DFAFFF774FE0420FFF722FF74
:103420000120FEF765F864242720FFF76FFEA0282F
:1034300007D0013CA4B2002C03D00A20FEF74CF8C0
:10344000F2E70320FFF70EFF70BD000010B5282043
:10345000FFF75CFE430704D400221B4B9A711A4805
:1034600010BD01210120FFF760FEFFF745FE00209F
:10347000FFF768FA144C05212000FFF73DFA237886
:10348000063BDBB2372B02D90A220F4B1A700E4CC7
:1034900021780539C9B2217089B20C48FFF72CFA9E
:1034A000FFF72FFE40212520FFF73FFE10210120CE
:1034B000FFF73BFE0020FFF76BFFA0800320FFF724
:1034C000D1FE0123A371CAE71C0F0020400E00208B
:1034D00010B504000022002303E0A05C1B18DBB23F
:1034E00001328A42F9D3180010BD000070B50D4CAE
:1034F00063781022134363700B4D6B7811221343D2
:103500006B70032209493220FFF74AFD022229008D
:103510003220FFF745FD022221003220FFF740FD57
:1035200070BDC0460C0000200800002004000020F0
:10353000010002099300D2185300DBB20F200840AB
:103540001818C0B2704710B582B00400072269464F
:103550003220FFF73BFD6B461878FFF7E9FF20703C
:103560006B465878FFF7E4FF60706B469878FFF77A
:10357000DFFFA0706B46DB7823726B461879FFF78C
:10358000D7FFE0706B465879FFF7D2FF20716B468A
:103590009879FFF7CDFFE08002B010BD70B505004F
:1035A0000A2100F0F1F90001C4B20A21280000F05C
:1035B00071FA6418E0B270BD10B582B00400002347
:1035C0006A4613700078FFF7E9FF6B465870607821
:1035D000FFF7E4FF6B469870A078FFF7DFFF6B46BC
:1035E000D870237A6A461371E078FFF7D7FF6B46ED
:1035F00058712079FFF7D2FF6B469871A079FFF7D9
:10360000CDFF6B46D871082269463220FFF7C8FC0F
:1036100002B010BDF0B5A1B0FCF774FDFFF7B2F930
:10362000FFF7DCFAFFF7D4FBFFF74AFCC148FFF7CE
:103630005DFFFFF71DFD21222121D9208000FFF72A
:1036400085FD0120FFF778FE07A9BB4B1A880A8089
:103650009A788A7006AA988810809B7993700322C2
:103660002720FFF7C7FCC025ED0580246C610A20E8
:10367000FDF73EFFAC610A20FDF73AFFAF4CB04BBF
:10368000B04AB1492000FCF7E5FE2000FDF768FDD7
:1036900000212000FDF76BFD01212000FDF76EFDEC
:1036A0006E212000FDF771FD2000FCF7EEFD2000EB
:1036B000FCF7F7FDA5492000FDF7E6F90523019386
:1036C0003B3300934033002200212000FCF71EFD15
:1036D0009F4B0F2214212000FDF798F99D4B1E22CD
:1036E00023212000FDF792F99B492000FDF7CCF93A
:1036F0009A4B282207212000FDF788F92000FCF7CB
:10370000D0FD4020FFF710F89620FDF7F1FE944A17
:10371000944B5A80A522944B1A72A43A9423EA50EF
:1037200003250A270024A5228F4B1A728E4BDB79C2
:10373000DB09FBD1FFF7BAF8002868D1FFF7BEF824
:10374000002800D089E0FFF7A9F8002800D0A6E003
:10375000002CE8D0794C80492000FDF795F91AAB90
:103760000B2264212000FDF751F978492000FDF774
:103770008BF970498A784B78097800917B490EA8BB
:1037800002F056FD0EAB0B2214212000FDF73EF98E
:10379000052301933B330093403300220021200096
:1037A000FCF7B4FC0C23009370330C22032120009F
:1037B000FDF762FA6E4EB2880221735E6D4908A869
:1037C00002F036FD08AB182203212000FDF71EF998
:1037D000B068F66802F018FA02900391301C02F00B
:1037E00013FA00900191029A039B634908A802F022
:1037F0001FFD08AB232203212000FDF707F920005D
:10380000FCF74FFD2000FCF740FD00248BE70A2069
:10381000FDF76EFE05AC022221002720FFF700FC19
:1038200022780123134007D0510705D406A8417818
:103830001024214341700A27520707D5002B05D1D8
:1038400006AA537810210B4353700A27032206A9B6
:103850002720FFF7CFFB012470E7FFF747F80600AA
:103860000423C25E45491AA802F0E2FCF378812BDA
:1038700007D0822B0FD11822414914A802F04CFC2A
:1038800061E72C4E0A223E49300002F045FC300030
:10389000FFF792FE57E70120FDF71EFE53E725488C
:1038A000FFF751FE3248FEF767FF002F21D006AA2E
:1038B000537810210B435370013FFFB22C4B02226F
:1038C0009B5ED9175A184A40142A00DD0A271E2B7E
:1038D00015DD06AA537808218B435370002D14D0B0
:1038E000013DEDB2032206A92720FFF783FB012447
:1038F0002EE706AA537810218B435370DEE706AA01
:10390000537808210B435370E8E71E4CFE23637085
:10391000DD3BA3706233E370733B2370144D1021C1
:103920002800FFF7D5FDE07129002000FFF745FDD5
:103930000325D7E710000020D4B00000B80F002006
:10394000672B00006D2B0000E0AE000084A6000095
:10395000DCB00000E8B0000018AB0000F4B00000DC
:1039600001430000000C00400010004018B10000AE
:103970005410002028B1000038B1000010B1000040
:10398000400E002068100020002243088B4274D3B0
:1039900003098B425FD3030A8B4244D3030B8B4250
:1039A00028D3030C8B420DD3FF22090212BA030C59
:1039B0008B4202D31212090265D0030B8B4219D33A
:1039C00000E0090AC30B8B4201D3CB03C01A52415A
:1039D000830B8B4201D38B03C01A5241430B8B42A2
:1039E00001D34B03C01A5241030B8B4201D30B038B
:1039F000C01A5241C30A8B4201D3CB02C01A5241B2
:103A0000830A8B4201D38B02C01A5241430A8B4274
:103A100001D34B02C01A5241030A8B4201D30B025D
:103A2000C01A5241CDD2C3098B4201D3CB01C01A77
:103A3000524183098B4201D38B01C01A5241430981
:103A40008B4201D34B01C01A524103098B4201D36F
:103A50000B01C01A5241C3088B4201D3CB00C01ADC
:103A6000524183088B4201D38B00C01A5241430854
:103A70008B4201D34B00C01A5241411A00D2014679
:103A8000524110467047FFE701B5002000F0F0F802
:103A900002BDC0460029F7D076E7704703460B43C6
:103AA0007FD4002243088B4274D303098B425FD337
:103AB000030A8B4244D3030B8B4228D3030C8B4263
:103AC0000DD3FF22090212BA030C8B4202D3121249
:103AD000090265D0030B8B4219D300E0090AC30B1E
:103AE0008B4201D3CB03C01A5241830B8B4201D3CB
:103AF0008B03C01A5241430B8B4201D34B03C01AB4
:103B00005241030B8B4201D30B03C01A5241C30A2B
:103B10008B4201D3CB02C01A5241830A8B4201D39C
:103B20008B02C01A5241430A8B4201D34B02C01A86
:103B30005241030A8B4201D30B02C01A5241CDD22B
:103B4000C3098B4201D3CB01C01A524183098B4276
:103B500001D38B01C01A524143098B4201D34B015F
:103B6000C01A524103098B4201D30B01C01A5241C2
:103B7000C3088B4201D3CB00C01A524183088B4249
:103B800001D38B00C01A524143088B4201D34B0032
:103B9000C01A5241411A00D20146524110467047A4
:103BA0005DE0CA0F00D04942031000D340425340A9
:103BB00000229C4603098B422DD3030A8B4212D369
:103BC000FC22890112BA030A8B420CD3890192119B
:103BD0008B4208D3890192118B4204D389013AD0D8
:103BE000921100E08909C3098B4201D3CB01C01AAD
:103BF000524183098B4201D38B01C01A52414309C0
:103C00008B4201D34B01C01A524103098B4201D3AD
:103C10000B01C01A5241C3088B4201D3CB00C01A1A
:103C2000524183088B4201D38B00C01A5241D9D232
:103C300043088B4201D34B00C01A5241411A00D2B3
:103C40000146634652415B10104601D34042002BAF
:103C500000D54942704763465B1000D3404201B52E
:103C6000002000F005F802BD0029F8D016E77047E3
:103C70007047C0468446081C6146FFE71FB500F048
:103C80002DFB002801D40021C8421FBD10B500F053
:103C9000BFFA4042013010BD10B500F01FFB0028F4
:103CA00001DB002010BD012010BDC04610B500F0A2
:103CB00015FB002801DD002010BD012010BDC0460D
:103CC00010B500F0CBFA002801DC002010BD012067
:103CD00010BDC04610B500F0C1FA002801DA00207E
:103CE00010BD012010BDC046002B11D1002A0FD1FC
:103CF000002900D1002802D00021C943081C07B4C4
:103D0000024802A14018029003BDC04665FFFFFFB4
:103D100003B4684601B5029800F028F8019B9E465E
:103D200002B00CBC7047C04610B50023002802D07A
:103D300002F0AEF8431C180010BDC0469E2110B51D
:103D4000C905041CFFF7C6FF002803D1201C00F0A2
:103D5000C3FD10BD9E21201CC90500F021FC00F010
:103D6000BBFD80231B069C466044F2E7F0B5574636
:103D70004E464546DE46E0B5040083B00D0092464F
:103D800099468B422FD82CD04946504602F074F801
:103D900029000600200002F06FF8331A9846203BF5
:103DA0009B4600D574E053465A4693401F00534645
:103DB000424693401E00AF4229D826D05B46A41B42
:103DC000BD41002B00DA79E000220023009201932C
:103DD00001235A46934001930123424693400093A6
:103DE00019E08242D0D900220023009201930C9B5B
:103DF000002B01D01C605D600098019903B03CBCB1
:103E000090469946A246AB46F0BDA342D6D90022C1
:103E10000023009201934346002BE8D0FB07720871
:103E20001A4346467B080EE0AB4201D1A2420CD8B1
:103E3000A41A9D41012024196D410021013E24183E
:103E40004D41002E06D0AB42EED9013E24196D4102
:103E5000002EF8D15B460098019900196941002BAA
:103E600022DB2B005A46D3402A004446E2401C0085
:103E70005B461500002B2CDB26009E4033002600FD
:103E80004746BE403200801A994100900191AEE74A
:103E9000424620239B1A5246DA40414613004A46C6
:103EA0008A4017001F4382E7424620239B1A2A00BC
:103EB00046469A402300F3401343D5E74246202369
:103EC00000219B1A0022009101920122DA40019206
:103ED00082E74246202326009B1ADE402F00B4468C
:103EE000974066463B003343C9E7C046F0B5C64637
:103EF0004E024702760A7B0A4400C50FF7004800CD
:103F0000984600B5240E2A00DB00000EC90FBC46FF
:103F10008D4267D0221A002A00DCA5E000283AD1A1
:103F2000002F00D193E0511E002900D0BCE00124F5
:103F3000DB1B5A0146D59B019E09300001F07EFF34
:103F400005388640844200DD9DE0041B32002020BD
:103F50000134E240041BA64033005E1EB34100243E
:103F600013435A0704D00F221A40042A00D0043306
:103F70005A0129D50134FF2C00D181E02A009B0190
:103F80005B0AE4B25B02E405580AD20720431043FF
:103F900004BC9046F0BDFF2CE3D080213800C9045A
:103FA000084384461B2A00DD82E020206146D14080
:103FB000821A604690400200501E82410A439B1ABA
:103FC0005A01B8D45A07CED1DE082A00FF2C3AD1C4
:103FD000002E00D1AEE08023DB0333435B025B0A9B
:103FE000FF24CFE7211A002952DD002831D0FF2C11
:103FF000B7D080203E00C0040643B4461B2900DD34
:10400000AAE020266046C840711A66468E403100FC
:104010004E1EB14101435B185901D3D50134FF2C29
:1040200000D187E0012278491A405B080B40134316
:1040300097E7002C00D0A7E0002B00D0B6E03B1E95
:1040400062D10026002273025B0AE4B29AE71400F0
:1040500087E7002F4DD0481E002857D16344012424
:104060005A01AFD50224DDE7002A24D1621CD2B266
:10407000012ADEDDDE1B720135D5FE1A0D005CE77C
:104080002A0000237EE73300604A241A134068E7C1
:10409000002963D1611CC8B201284EDDFF2949D037
:1040A00063445B080C005CE7FF2A41D00A0079E713
:1040B00001229B1A84E7002C1DD0FF2822D08024E7
:1040C000E404524223431B2A00DD8AE01C00202521
:1040D000D440AA1A93405A1E9341234362460400D7
:1040E000D31A0D0025E7002E00D026E70022002479
:1040F000A9E70C0035E7002B4DD0D243002AEDD0C4
:10410000FF28E0D16346FF240D002AE7FF290FD0E6
:10411000010073E7002B61D0FF24002F00D120E7BE
:1041200080224146D203114202D0164200D13B0008
:10413000FF2416E7FF24002324E7002CEAD1002BFC
:1041400058D0002F00D10CE763445A0100D439E75E
:104150002E4A0C00134004E701215CE7002C1ED11D
:10416000002B40D0C94300290BD0FF2836D01B2993
:1041700047DC1C002026CC40711A8B40591E8B4115
:1041800023436344040047E7002B18D13B1E2DD086
:104190000D00FF24E5E63B0004000D00E1E6FF28EA
:1041A0001CD08024E40449422343E0E7002F00D1DF
:1041B000D7E6DE1B72011FD5FB1A0D00D1E6FF24E6
:1041C000002F00D1CDE680224046D2031042AFD06E
:1041D0001642ADD13B000D00FF24C2E66346FF242A
:1041E000BFE601237AE73B000400BAE680260022FE
:1041F000F603F0E63B00B4E6331E00D0E2E6002210
:1042000021E70123BDE7C046FFFFFF7DFFFFFFFB66
:1042100070B5420045024E024C00C30F6D0A120EEB
:10422000760A240EC90F0120FF2A06D0FF2C03D0E6
:10423000A24201D1B54206D070BD002DFCD1FF2CA9
:10424000FAD1002EF8D18B4206D00120002AF3D1FA
:104250002800451EA841EFE70020EDE7F0B5420039
:1042600045024C02C30F48006D0A120E640A000E8C
:10427000C90FFF2A1ED0FF2821D0002A0AD16E4282
:104280006E41F6B200280FD1002C0DD10020002D78
:1042900009D005E0002801D1002C01D08B4211D0BB
:1042A000012158420843F0BD002EF7D0012001390A
:1042B0000843F8E7002DDED002204042F3E7002C4F
:1042C000DBD0F9E78242EBDC04DBA542E8D8002032
:1042D000A542E8D20121581E0843E4E7F0B54200A8
:1042E0004D024C004602760A120EC30F6D0A240ED0
:1042F000C90FFF2A16D0FF2C18D0002A0AD170420D
:104300007041C0B2002C15D0002805D00120013921
:104310000843F0BD002C13D0994214D001205B4219
:104320001843F6E70220002EF3D1E4E70220002D27
:10433000EFD1E2E7002DE7D10020002EE9D0EDE734
:10434000002DE9D1EAE7A24206DCDFDBAE4203D86A
:104350000020AE42DAD3DCE7012049420843D8E727
:10436000F8B557464E464546DE46E0B5470246009C
:1043700088467F0A360EC40F002E47D0FF2E24D069
:10438000FB008027FF041F43002399469A467F3E87
:1043900043465D025800DB0F6D0A000E984643D07D
:1043A000FF283BD0EB0080250022ED041D437F3821
:1043B0003618731C41469B464B46614013430F2BF6
:1043C00064D875489B00C3589F46002F42D10823EC
:1043D0009946063BFF269A46DAE74146022A28D04C
:1043E000032A00D1CEE0012A00D0ACE01140002029
:1043F0000022CCB24002D205400AE4071043204319
:104400003CBC90469946A246AB46F8BD002F15D15C
:1044100004239946033B00269A46B9E7FF2002226F
:10442000002DC5D00322C3E7002D19D100200122A1
:10443000BEE70124FF220C400020DBE7380001F03A
:10444000FDFC7626431F9F4000237642361A99468C
:104450009A469DE70C239946093BFF269A4697E723
:10446000280001F0EBFC431F9D4076235B42181AA5
:1044700000229DE780200024C003FF22BAE73D0010
:104480005246ABE73D0021005246A7E73B0C9C4655
:104490002A04120C2B0C1400604665463F043F0CA6
:1044A0007C4342435D437B43270C9B18FF18BA4271
:1044B00003D980235B029C46654424043A04240CFF
:1044C000121993015C1EA3413F0C920E7D191A43F1
:1044D000AD0115432B0104D501235E466A081D403A
:1044E000154332007F32002A25DD6B0704D00F23ED
:1044F0002B40042B00D004352B0103D53200274B71
:1045000080321D40FE2A94DC0124A801400AD2B268
:104510000C406FE78020C003074207D0054205D159
:1045200028434002400A4446FF2263E738434002E2
:10453000400AFF225EE70124A31A1B2B05DD0C4075
:104540000022002056E75E46CBE72A002020DA4012
:10455000C31A9D402B005D1EAB4113435A0704D084
:104560000F221A40042A00D004335A0104D5012432
:1045700001220C4000203DE701249B01580A0C4019
:10458000002237E780200124C00328434002400A6C
:104590000C40FF222EE7C04648B10000FFFFFFF7A6
:1045A000F0B54F46D64646464400C0B5C20F470256
:1045B0004802400A844666467B0A4800C90F9A466C
:1045C000240E1500DB00000E8946F600FF2800D1FE
:1045D0008FE001214F464F403900914266D0221AA8
:1045E000002A00DC9DE000283DD1002E00D18BE0A8
:1045F000511E002900D0B5E001249B1B5A0144D56F
:104600009B019F09380001F019FC0538874084425E
:1046100000DD96E0041B3A0020200134E240041B38
:10462000A7403B005F1EBB41002413435A0704D040
:104630000F221A40042A00D004335A0127D501342E
:10464000FF2C00D179E001229B015B0AE4B22A40F1
:104650005B02E405580AD207204310431CBC904675
:104660009946A246F0BDFF2CE0D08021C9040E433C
:104670001B2A7BDC31002020D140821A9640721E1A
:1046800096410E439B1B5A01BAD45A07D0D101223E
:10469000DF082A40FF2C33D1002F00D1A8E080236F
:1046A000DB033B435B025B0AFF24D1E7211A0029AD
:1046B0004CDD00282AD0FF2CB8D08020C00406434F
:1046C0001B2900DDAFE030002027C840791A8E405A
:1046D000711E8E4106439B195901D6D50134FF2C1A
:1046E00000D185E001227A491A405B080B40134350
:1046F0009CE7002E00D070E76BE73B1EC5D100227F
:104700007B025B0AE4B2A3E714008FE7002E4DD0D2
:10471000481E002857D19B1901245A01B5D50224FF
:10472000E0E7002A25D1621CD2B2012A72DD9F1B6C
:104730007A0135D5F71A0D0064E7012200232A40DB
:1047400086E73B00634A241A13406FE700296CD1C7
:10475000611CC8B201284EDDFF2949D09B195B08B6
:104760000C0063E7FF2A41D00A0081E701269B1B6A
:1047700089E7002C1CD0FF2821D08024E404524279
:1047800023431B2A00DD96E01C002025D440AA1AF2
:1047900093405A1E93412343F31A04000D002DE762
:1047A000002F00D02EE700220024A9E70C003DE7EF
:1047B000002B58D0D243002AEED0FF28E1D133009D
:1047C000FF240D0032E7FF2910D0010078E7002B0D
:1047D0006ED0FF24002E00D128E780225146D2035C
:1047E000114203D06146114200D13300FF241DE77E
:1047F000FF2400232CE7002CE9D1002B63D0002EEE
:1048000000D113E79B195A0100D43EE7314A0C004E
:1048100013400BE7002C1ED1002B2FD1002E4FD0C0
:1048200033000D0002E7012655E7002C1FD1002BB5
:1048300043D0C94300290BD0FF2839D01B2944DCC1
:104840001C002027CC40791A8B40591E8B412343F2
:104850009B19040040E7002B1AD1002E24D1802799
:104860000022FF031BE7330004000D00DEE6FF28F3
:104870001ED08024E40449422343DFE7002E00D108
:10488000D4E69F1B7A0100D437E7F31A0D00CDE67A
:10489000FF24002E00D1C9E680225046D2031042E8
:1048A000A4D060461042A1D133000D00FF24BDE624
:1048B0003300FF24BAE601236EE733000400B5E6B7
:1048C000002700221CE73300B0E60123C0E7C04602
:1048D000FFFFFF7DFFFFFFFB41024300C20F490ABC
:1048E0001B0E00207E2B0DDD9D2B0CDC8020000498
:1048F0000143952B0ADC9620C31AD9404842002A6E
:1049000000D108007047034BD018FBE7963B994055
:10491000F4E7C046FFFFFF7FF0B557464546DE4649
:104920004E46E0B54C000E0387B0834692461D000C
:104930008046360B640DCF0F002C4FD06F4B9C423E
:1049400035D08023420F1B04F600134333439946AE
:10495000C30098466A4B00269C4600236444039398
:104960002B031B0B9B466B00ED0F50465B0D019517
:104970005ED0624A934253D05A46D1008022400F03
:10498000120402430A4393465246D1005C4A9446BD
:10499000002263443800684084460290E41A1643BB
:1049A0000F2E00D9B4E0574BB6009B599F46030029
:1049B000334399466CD1002398460233082603936B
:1049C000CEE7CB464146039A0197022A65D1019B67
:1049D0004A4C9C460023002298466BE00300334378
:1049E00099464ED0002E00D1BCE1300001F026FAED
:1049F00003000B3B1C2B00DDACE11D22D31A5A46F1
:104A00000100DA4008398E401300334399465B4673
:104A10008B40984600233C4C0026241A03939FE7C2
:104A200051465A46114329D1002293460232B1E73A
:104A3000594601431ED05B46002B00D19EE15846EB
:104A400001F0FCF903000B3B1C2B00DD8FE10200A1
:104A50005946083A91408B461D21CB1A5146D94000
:104A60000B0059460B4351469B469140264B002272
:104A70001B1A8FE7002301229B468BE75146032236
:104A800088E700239846013304260024039367E750
:104A90000323B14603930C2662E7032A00D15CE2AC
:104AA000019B012A00D0E4E113409C46002300242E
:104AB0000022984600211203130B0A0D12051A4317
:104AC0002305124C40462240134362465B00D20746
:104AD0005B081343190007B03CBC90469946A246B8
:104AE000AB46F0BD002380229C4612039846034C3F
:104AF000E0E70023014C00229846DBE7FF070000B7
:104B000001FCFFFF88B100000DFCFFFFFFFF0F80DD
:104B1000D94500D939E100D134E1002346464D465C
:104B20009A46013C5B460A0E1B021A430B02170C05
:104B3000039313041B0C3900280090460193FEF7E1
:104B400023FF0200019B83465A4328003900914607
:104B5000FEF7A0FF350C09040D43A9450DD95B46AE
:104B60004544013BA84500D93AE1A94500D837E1C1
:104B700002235B429C464544E3444B46EB1A390012
:104B800018000493FEF700FF019B05004343390022
:104B900004989946FEF77EFF330409041B0C0B436F
:104BA000994509D943446A1E984500D91AE19945A7
:104BB00000D817E1023D43444A469B1A5A46120464
:104BC0002A4303999346100C0A0C914609045A464D
:104BD000090C4E460D001204120C45430591514339
:104BE0007243704352190E0CB218954203D98025B6
:104BF0006D02AC466044150C09041204090C281817
:104C00005218834200D2CEE000D1C8E01D1A5346AC
:104C10009E1AB24592415242AB1A9A46984500D12B
:104C200017E139001800FEF7AFFE019B0500434372
:104C3000390050460493FEF72DFF04980B04310C05
:104C40001943884209D941446B1E884500D907E1C0
:104C5000884200D804E1023D4144049BCB1A18006D
:104C600039000493FEF790FE019B824643433900CE
:104C700004980193FEF70EFF01980B043104090C10
:104C8000194388420DD953464144013B884500D918
:104C9000E8E0884200D8E5E002235B429C464144BC
:104CA000E244019B2D04CE1A51462943059D4F46EF
:104CB0002A000B04080C1B0C5A4345437B437843E2
:104CC0005B19170CFB189D4203D980256D02AC4679
:104CD00060441D0C12041B04120C28189B188642F9
:104CE00000D293E000D18EE001231943A04BE318DA
:104CF000002B00DC99E04A0700D09EE05A46D20122
:104D000006D55A469B4B1A4080239346DB00E31896
:104D1000994A934268DD0123029A984C1A40002375
:104D2000944698460022C5E680224B461203134261
:104D30000AD05B46134206D11A431203120BAC464B
:104D400088468E4CB6E64B461A431203120BBC46FD
:104D50008A4CAFE603005A46283B9A40002391460E
:104D6000984657E6584601F069F8203040E60300BF
:104D70005246283B9A400021934677E601F05EF8C0
:104D800020305FE6884500D2C7E64B46DE075D0867
:104D900043465B081E434346DB079A46C2E60025AE
:104DA000924500D333E7039E5946B446E244B245E8
:104DB000AD416D424544EB180139984507D2984200
:104DC00000D97FE000D1BCE01D1A8B461FE7984553
:104DD000FAD1039D5545F2D943468B461D1A16E775
:104DE0009B46CAE61500E7E65A46C90852070A4339
:104DF0005B0590465C0D5A46012302995202194008
:104E0000120B8C4656E6002B00D16FE746444A1E33
:104E1000B04529D91100864200D065E7039A934234
:104E200000D061E762E7012149420120C21A382A15
:104E300021DD029B03409C4638E60F220A40042AEB
:104E400000D15BE70A00111D914292415242934406
:104E500054E7474BE318002BE5DD01225242F2E70D
:104E60001D00FAE69A461CE7B04239D86ED0110010
:104E70003AE702933AE71F2A3CDC20239B1A0C00F6
:104E80005846994098404B1E99415B46D440D340C8
:104E9000204308431A00430709D00F230340042B83
:104EA00005D00100081D88429B415B42D2181302C5
:104EB0003AD50123029A01241A40002394469846C9
:104EC0000022F7E5022149428C46039DE344AC46AB
:104ED000E244AA45AD416D424544ED182D1A96E6CF
:104EE0008A1E03994D008D428941494241447618FA
:104EF00003958FE71F204042C31A5846D84003004D
:104F0000202A28D040205D46821A954029434A1E17
:104F100091411943072300220B4009D00F2300229F
:104F20000B400800042BBDD1010053075202120BA5
:104F3000C9081943012388460299002419408C4668
:104F4000B8E55245BED88B46002560E6039D9D42DC
:104F5000C6D3110062E70025D8E780225B46120322
:104F60001A43019B1203120B9C468846034CA1E591
:104F7000FF030000FFFFFFFEFE070000FF07000029
:104F8000F0B557464546DE464E46E0B50C0398461A
:104F90004E00230B87B0070092469B46760DCD0F3F
:104FA000002E6BD06D4B9E4235D080245B46420F65
:104FB0002404DB0014431C43C3009946684BA346FA
:104FC0009C46002300276644029343461C035A0074
:104FD000DB0F5046240B520D984600D176E05F4B14
:104FE0009A426DD08023410F1B040B435C49E400BF
:104FF0008C461C43C300002062444146B6186940F9
:10500000721C0191944607430F2F00D9B0E0554A16
:10501000BF00D25997465B460343994600D087E0CC
:1050200000239B46023308270293CEE742460192B3
:10503000022867D0032800D10EE2012800D062E1E7
:10504000002300240022994601990140CDB200219D
:1050500012030B0D120B1B051343434A2405134087
:105060001C436400ED0764082C434846210007B048
:105070003CBC90469946A246AB46F0BD03439946D8
:105080004FD05B46002B00D189E1584600F0D6FE98
:1050900003000B3B1C2B00DD7AE11D22D31A3A00E2
:1050A00001005C46DA4008398C4013008F402343EE
:1050B0009B46B94600232D4E0027361A029384E7FB
:1050C000534623432AD10024022096E75346234324
:1050D00020D0002C00D157E1200000F0AFFE0300EB
:1050E0000B3B1C2B00DD49E11D21CB1A5146020070
:1050F000D9405346083A944093400C431B4A121A35
:1051000000207AE70125019B144C1D40002300225A
:1051100099469CE70024002201206EE753460320B5
:105120006BE700239B4601330427002602934CE7DC
:10513000032381460C27029347E7802200230025A2
:1051400012039946054C82E75C464B4602986FE78E
:105150005C464B46019502986AE7C046FF0700008F
:1051600001FCFFFFC8B10000FFFF0F800DFCFFFF37
:105170004A464946170C1A0C1B041B0C080419005C
:10518000000C41431500884619007D43794303957F
:1051900089462900150045434D44029545462D0C8E
:1051A000AA46029D5544A94506D98A46802149024E
:1051B0008946CA4451460391290C04914146090489
:1051C0002D04090C88462900250C24044144240C94
:1051D0000591210041438846210079438A4668436E
:1051E000414650448146080C48446F43824503D9E8
:1051F0008021490289464F44010C894639004944BF
:10520000029141460F0404993F0C88460004C019DE
:1052100080444146049159460F0C0904090C884604
:1052200059438A4639005143894641464A435146CB
:10523000090C8B467B43D2185A44934203D98023EE
:105240005B029B46D94451460904090C8A464146F3
:1052500061437C43130C12044B445244A1468A46DA
:105260003C0041466C434D4351464D440F0C7D1963
:10527000A94503D98021490288464444049F0399E3
:10528000B84641448B468345804141428846514659
:1052900008042F04000C3F1858460299101889463C
:1052A000904292414F44BA46524299469346C24474
:1052B000D144CB448F42BF41C245894199459B416E
:1052C000934592417F4249422D0C52420F435B422B
:1052D00013437F19FF185B463C19DB0D059A6402E6
:1052E0001C43430213435D1EAB415A46C00D0343AA
:1052F00052021343E20156D501205A0803401343DA
:10530000E207134364085A48604400284DDD5A07F9
:1053100009D00F221A40042A05D01A1D9A429B4137
:105320005B42E4181300E20104D58020514AC0001A
:1053300014406044504A904200DDE3E60125DB085A
:1053400062071A436402019B9146220B4405640DD7
:105350001D407CE6802259461203114208D01442B7
:1053600006D122431203120B45469946434C6EE682
:105370005B461A431203120B404C68E60300544686
:10538000283B9C400023B9E600F058FD2030A6E6FB
:105390000300283B9F400023BB4699468AE600F065
:1053A0004DFD203074E6B446ADE701252A1A382AAF
:1053B00006DD019B00241D4000230022994646E69D
:1053C0001F2A21DC20252000AD1A1E00AB40A8407A
:1053D000D6405D1EAB4130431843D440430709D04B
:1053E0000F230340042B05D00300181D98429B4156
:1053F0005B42E418230221D50125019B01241D40B5
:1054000000230022994622E61F2521006D42281A1A
:10541000C1400800202A1DD05F35AA1A94402343BA
:105420005C1EA341072503431D400022002D09D027
:105430000F2200241A401800042AD6D10300650761
:105440006402220BDB082B4301259946019B0024B3
:105450001D40FCE50024E2E78022012512032243DF
:1054600001991203120B0D409946044CEFE5C0461A
:10547000FF030000FFFFFFFEFE070000FF07000024
:10548000F0B54646D6464F460C03C0B5CD0F4E008C
:10549000610A440F0C43C1005800400D84468A46FF
:1054A0000F001903500F490A0143C648760DA8465C
:1054B000DB0FD200844500D1D8E001204340AB424D
:1054C00000D1A6E06046351A002D00DC05E1002879
:1054D00010D10B00134300D1D7E06B1E002B00D07E
:1054E0004BE153469F1ABA458041641A4042241A40
:1054F00001261EE0B34B9E4248D080231B04194373
:10550000382D00DD19E11F2D00DD4CE120230F00B7
:105510005B1B10009A409F40E840531E9A41E940AF
:10552000074317435346DF1B611ABA45A44164423F
:105530000C1B230200D4C5E06402650A002D00D1D3
:10554000F6E0280000F07AFC0300083B1F2B00DD8A
:10555000E9E020223C00D21A9D40D4409F402543E0
:105560009E4200DDDBE09E1B731C1F2B00DD0AE169
:1055700020223800D21A290097402C009140D840B0
:105580007A1E9741DC40002601430F437B0709D078
:105590000F233B40042B05D03B1DBB42BF417F4244
:1055A000E4191F00230225D5864B01369E4200D107
:1055B000AFE0854B01251C4043466207FF086402AB
:1055C00076051743240B760D1D4000212403230B81
:1055D0000C0D7E4A24051C431440330523435B0015
:1055E000ED075B082B43380019001CBC9046994618
:1055F000A246F0BD012543466207FF081743E408B1
:105600001D40704B9E4236D024037605240B760D48
:10561000DBE76346F31A002B00DC94E060460028C9
:1056200035D068488642B1D080273F043943382BB3
:1056300000DCFDE00A43170000217A1E9741574421
:1056400057458041091944420C1923023AD55D4B54
:1056500001369E4200D14BE101225B4B1C407B088E
:1056600017401F43E207174364088FE70800104301
:1056700000D024E721E723003B4300D1B9E1802299
:10568000120314432403240B9FE72E007EE7080037
:10569000104300D1CAE0581E8446002800D0E7E03D
:1056A0005244524580416418404224181700012694
:1056B000230207D50226CFE764462C4300D1B3E18D
:1056C0002C0067467B0700D062E76307FF081F4393
:1056D00001254346E4081D4093E7002D78D1751C51
:1056E0006D056D0D012D00DCF2E05046801A8245FB
:1056F000BF41651A7F42ED1B8446280200D48CE02E
:105700005046171ABA4292410C1B5542651B9846E7
:1057100014E70125434600241D40002755E72A4C85
:10572000F61A2C4032E73D0028388540002717E75D
:10573000380000F083FB203006E70A431700002101
:105740007A1E9741EEE6002B00D0E5E0731C9C46E4
:105750005B055B0D012B00DC9FE01A4B9C4500D1E3
:10576000C5E0524452458041641840422418E7077E
:10577000520817436408664608E71248854200D17C
:1057800085E01D00BCE629001F3EF140202B00D122
:105790007FE04022D31A9D402F437D1EAF4100245D
:1057A0000F4300268EE72B000F00203BDF40202D0B
:1057B00071D040235D1BA9400A43511E8A4100213C
:1057C0001743AFE6FF070000FFFF7FFFFFFF0F80DB
:1057D000002E3ED0B34EB44545D0802636046D42EF
:1057E0003443382D00DDA8E01F2D00DD1FE1202609
:1057F00027005046761BB740E84007435046B0406C
:10580000461EB041EC403843171ABA4292410C1B75
:105810005242A41A664698468BE6644667462C4375
:1058200000D08BE6002500260027EAE61E00ADE644
:105830001F2B60DC2027F81A0F00844687401000D9
:10584000D840074360468240501E8241D9401743EA
:10585000F5E626005046064305D0ED43002DD3D093
:10586000904EB445BDD10C001700664698468DE6B3
:105870008C4883420BD06346D9E6002D00D096E0D9
:105880000800104300D1E2E00C0017009846854E56
:105890007CE6002580E700218EE723005046034385
:1058A000002E00D0A8E0002B00D1DEE00B00134357
:1058B00000D16BE65244524580416418404224189E
:1058C0001700230200D4FDE6774B66461C405DE6D8
:1058D000250050460543002ECFD1002D4FD10C009E
:1058E000144300D1A0E00C00170098464EE666462F
:1058F0000024002785E61F000800203FF84007002D
:10590000202B00D18EE04020C31A99400A43511E3B
:105910008A410021174392E6002E14D126005046FA
:10592000064362D0DB43002B5CD18718974292413B
:1059300064185242A418664687E650462043441E27
:10594000A041002460E7574EB4454ED0802636046F
:105950005B423443382B00DD7FE01F2B00DD8BE002
:10596000202627005046F61AB740D8400743504635
:10597000B040461EB0410743DC40BF18D6E70D00DB
:10598000154300D102E65046801A8245BF41651A90
:105990007F42ED1B8446280200D48DE65046171A3C
:1059A000BA4292410C1B5242A41A9846EEE50D00F1
:1059B000154300D16BE750466707C00807438020B6
:1059C000E4080003044207D0CD08054204D12C00AE
:1059D0009846D70849070F437B0FE4001C43FF009C
:1059E000304ED3E52F4EB445B4D10C0017006646B7
:1059F000CCE500270024E8E5002B39D00B00134349
:105A000000D144E7C008670707438020E40800038B
:105A10000442E1D0CB080342DED1D70849070F4347
:105A20001C00D9E7002171E700250027E9E52E00D9
:105A30002700203EF740202D2FD04026751BAC407C
:105A400050462043441EA04100243843DCE6802415
:105A500000252403134E0027D3E5504620430700BA
:105A6000781E87410024BF1860E70C0017008DE501
:105A70000C0017000B4E89E51E002700203EF74062
:105A8000202B0CD04026F31A9C4050462043441E45
:105A9000A04107430024BF1848E70024D0E70024B2
:105AA000F3E7C046FF070000FFFF7FFF30B5134D4F
:105AB0000A034B00120B5B0DC90F0024AB4210DD33
:105AC0000F4CA3420FDC80240E4D64032243ED1AD9
:105AD0001F2D0BDD0C48C31ADA405442002900D1B7
