S02400004C696665506F342048696768506F77657220706F7765722062616E6B2E73726563D7
S1130000C8300020411100003D1100003D110000E6
S113001000000000000000000000000000000000DC
S11300200000000000000000000000003D1100007E
S113003000000000000000003D1100003D11000020
S11300403D1100003D1100003D1100003D11000074
S1130050491700003D1100003D1100003D11000052
S11300603D1100003D1100003D1100003D11000054
S11300703D1100003D1100003D1100003D11000044
S11300803D1100003D1100003D1100003D11000034
S11300903D1100003D1100003D1100003D11000024
S11300A03D11000010B5064C2378002B07D1054BF9
S11300B0002B02D0044800E000BF0123237010BDD0
S11300C0C0090020000000001CAE0000084B10B561
S11300D0002B03D00749084800E000BF0748036825
S11300E0002B00D110BD064B002BFBD09847F9E73D
S11300F000000000C40900201CAE00001CAE00007B
S11301000000000010B501F08DF810BDF0B589B005
S113011006930EAB1B880392069A07930FAB1C88B9
S11301208F18039B079ABFB29D18ADB200953B0090
S1130130039A0600029100F0A6FC002863D0029BFB
S113014030001B199BB20493039B04991B199BB2A7
S11301500593E3439BB2FF18ED180223059A00931D
S1130160230000F0E7F80123BFB20093059A2300AF
S11301703900300000F0DEF80423ADB22A00009309
S113018004992300300000F0D5F808232A000093D6
S113019039002300300000F0CDF8069B1D1B079B9F
S11301A02D1B1B1B1C1BADB2A4B2022D14D9049F22
S11301B0023D0137BFB2ADB22B00039A39003000C3
S11301C000F02BFC079A039B013A9A1892B22B0079
S11301D03900300000F021FC022C14D9059D023CAA
S11301E00135ADB2A4B223002A000299300000F018
S11301F01AFC0699029B0139591889B223002A0076
S1130200300000F010FC09B0F0BD0300F0B5383345
S11302101B7885B0029303000500002639331F784C
S113022003685B7C03932B68B0B21B7CF4B2D900E7
S11302304143686B89B241183A190091D2B2002146
S1130240280000F08AFE0134029BE4B2A34205D9DF
S11302500136BB19039ADBB29A42E4D805B0F0BD6B
S113026010B5036800211A7C030038331B78406BF7
S1130270DB005A4305F0FEFB10BD10B50400FFF788
S1130280C4FF200000F099FE10BDF7B5009308AB41
S11302901F8809AB1B7805000C0016000193DB07CF
S11302A00ED5009BBA1A591892B289B200F0C1FB5C
S11302B0009B3A1B991992B289B2280000F0B9FB4D
S11302C0019B9B070FD5009BBA1B191B92B289B2E5
S11302D0280000F0AEFB009B3A1B991B92B289B236
S11302E0280000F0A6FB019B1B070FD5009BBA1941
S11302F0191992B289B2280000F09BFB009BE21905
S1130300991992B289B2280000F093FB019B5B0714
S11303100FD5009BBA19191B92B289B2280000F0BC
S113032088FB009BE4199E1BA2B2B1B2280000F026
S113033080FBF7BDF0B51C0087B0029203900CABB4
S113034002981B78013005932018631CCB1880B2E7
S11303500F00121B091B00909BB292B289B2039842
S113036000F091FB002813D063005B421BB204939E
S1130370059B01250193029B2200009300213B0071
S11303800398FFF782FF00262D1B2DB2B44201D83B
S113039007B0F0BD002D08DB049B013C02339BB287
S11303A01AB25D19A4B204922DB20136B6B273002A
S11303B001335D19059B22000193029B31000093D8
S11303C003983B002DB2FFF760FFDFE708230370BB
S11303D000487047DC0900207FB50F250E006D44EE
S11303E0009308491300084A040000F097FE28000F
S11303F0FFF7ECFF2A7801000096044B200000F080
S1130400B9FC7FBD79100000A90E0000B10B0000FB
S1130410411808784B780002C01880B27047002059
S1130420704770B50B780D0003704B78040043706F
S11304308B788370CB78C3700B7903714B794371DC
S11304408B798371CB79C3710B7A03724B7A4372C4
S11304508B7A8372CB7AC3720B7B03734B7B4373AC
S11304608B7B8373CB7BC3730B7C112103742800B8
S1130470FFF7CEFF132160822800FFF7C9FF152183
S1130480A0822800FFF7C4FFE08270BD70B5046845
S1130490067B257872183541D2B2EBB2072A0AD905
S11304A0631C036063780824A41BE4B2A340083AE5
S11304B02B43DBB2D2B202730120884001381840CA
S11304C070BD70B50400002360340166237303001B
S11304D00500783319782000FFF7D8FF2B00A072AD
S11304E0793319782000FFF7D1FF9235E0722B7829
S11304F0A3735A425341E37370BD10B50C00FFF768
S1130500C5FF0123013CE4B2A340C01A40B210BDB0
S1130510012B08D0002B03D0022B06D0401A00E098
S1130520801880B270474018FBE7801AF9E7012B66
S113053008D0002B03D0022B06D0801800E040180E
S113054080B27047801AFBE7401AF9E70300F0B560
S113055004000F008DB00B9260331A7A03925B7A19
S1130560069325006035AB7A039A9B1ADBB2049399
S1130570049A3B1C974201D96B461B7CDBB208935F
S1130580EB88A8880C260A936B469E571B7E310085
S11305905BB207932B7C079A0593FFF7C8FF059B73
S11305A00990079A31000A98FFF7B2FF0B9B0200EB
S11305B0002B17D0A97B2300923319706B46059941
S11305C01B8C20000091099900F0B7F9049B9F420D
S11305D00DD3FF1A069BFFB20133DBB2069300234F
S11305E00393BEE76B7B002BF0D1E97BE3E7039B2E
S11305F06034FB1823726B461B7F63720DB0F0BD31
S1130600F0B5040089B00700FFF75BFF23006B33EC
S11306101B7860375BB2029323007A331978380071
S1130620FFF76BFF230006907B3319783800FFF740
S113063064FF23007C33197805003800FFF75DFF61
S11306400A230790FB560393002B5ADD029B06995D
S11306505B195B425BB205933B7C059A0493B888B3
S1130660FFF765FF049BB880059A0699060005000C
S1130670F888FFF74DFF049B02000100F880032B6C
S113068063D8180002F04CFD02404A57039B0298BD
S1130690F5181118ABB289B200912000310000F0B6
S11306A0F2F900282DD023000022012560331A72AC
S11306B05A722300763319783800FFF7E7FE2300D7
S11306C00390773319783800FFF7E0FE0600002224
S11306D003992000FFF73AFF310020002A00FFF7BA
S11306E035FF29003800FFF7D1FE0028EFD12300A1
S11306F0092260339A5602998A42DADB9B7B923450
S11307002370079809B0F0BD029B0398F61A0135CF
S113071011180136ABB289B2B6B2BDE70122039B10
S11307200298D61AAE19AD18121A8A180131ABB252
S113073089B292B2F0E7039A029B8A1AF518013241
S11307400131ABB289B292B2A6E701003300A3E74C
S1130750F8B5846D0D001734FF2912D860290AD921
S113076088300388E4186078002803D02378AB42EB
S113077005D1A01CF8BD4029F5D98630F1E724182D
S1130780F1E78A300088022724182600002130006F
S1130790FFF73EFE390024183000FFF739FE043617
S11307A08542F3D82078637800021843E2D085426A
S11307B001D1E01CDEE7A378E418F3E7F8B51F00E5
S11307C003007033040018780E001500032808D8BD
S11307D0E36D02F0A5FC02151A1E200098472D189F
S11307E0ADB22300643339001E805D802000FFF722
S11307F0AFFF011E03D02000FFF702FF80B2F8BD57
S113080020009847361AB6B2EBE7200098472D1A15
S1130810E6E7200098473618F5E70000F7B51F0013
S113082006000C00150000F0D3FA0023019373684E
S1130830397830009847134A030090421FD0124A77
S113084001379042F3D02A0021003000FFF7B6FFB1
S11308503200703203001078032805D802F060FCDF
S113086002080B0DE418A4B2019AD3189BB2DDE779
S1130870ED18ADB2F8E7E41AF5E7ED1AF9E70198D7
S1130880FEBDC046FFFF0000FEFF000010B5024C95
S11308904460FFF7C3FF10BDBD0D0000836D70B54C
S11308A0002B1DD003000026050001240200813323
S11308B09E578E352E701C578F3214700C331B7854
S11308C0002B0DD0012B0CD1030083331B785BB2BA
S11308D09E4200DA2B708423C3569C4200DD1370C1
S11308E070BD030080217E331B7841565BB25B18D8
S11308F09E4200DA2B708C42F2DD1170F0E70000AA
S1130900014BC3657047C0461F040000836D10B5DA
S113091004008B4206D081657430FFF782FD20000D
S1130920FFF7BCFF10BD37B5C58F06AC2478521B4A
S1130930009492B2C46AA04737BDF7B505008C3560
S11309402D7808AC2478002D3FD0002B3DD0012B0E
S113095004D9022C30D10131C91A89B201252C40A5
S11309600500002C32D14C352D8895422DD8050038
S11309704E352D88954228D905000600CB184835F8
S11309804A369BB22D8836888B421CD28E4219D9A6
S1130990731E9BB29D4218D22F1C8D4200D20F1C95
S11309A0B9B2351C9E4200D91D1C6B1A056B00940C
S11309B09BB2AC68A04708E0032CCFD10132D21A15
S11309C092B2CBE729008E42E4D8F7BD48352D8892
S11309D08D42FAD805004A352D888D42F5D9050097
S11309E0D3184C352E889BB202352D88934211D2F0
S11309F095420ED96B1E9BB29E42E6D2371C96429C
S1130A0000D2171CBAB22E1C9D4200D91E1CB31A68
S1130A10CCE732009542D8D9EEE713B50024009410
S1130A20FFF78BFF13BD13B501240094FFF785FF77
S1130A3013BD030007B54C331B88934213D803003E
S1130A404E331B8893420ED9030048331B888B42D4
S1130A5009D803004A331B888B4204D9002300932E
S1130A600133FFF76AFF07BD10B504008A4206D2BE
S1130A700120A34202D893429B41584210BD8342B5
S1130A80F9D80020FAE770B50D00010004001E003B
S1130A904E3104AB4C301B8809880088FFF7E4FF13
S1130AA0002808D0230048344A33198820883300AA
S1130AB02A00FFF7D9FF70BDF0B51E0087B00CAB5C
S1130AC005900C0015001B888F1BB14200D8771AC3
S1130AD0BFB29D4208D9EA1A92B20192974225D335
S1130AE0B44249D800220EE05A1B92B201929742B6
S1130AF04DD23A00019F019232001E0013002200E1
S1130B002C001500012203927A0812B202920022EC
S1130B109D4252410123524213430493224B9E426D
S1130B2000D1224EA6420BD207B0F0BD3A00019F7D
S1130B3001922A003500160022001C001300E1E790
S1130B40039B002B15D12A0021000598FFF771FFA4
S1130B50029B019A9B1A9BB21AB20292002A05DAEE
S1130B60049ADB19AD181BB2ADB202930134A4B2DE
S1130B70D8E722002900E8E71D00230034001E0006
S1130B8000237A0812B2039302920133C5E7B442F8
S1130B90A8D91D00230034001E0000237A0812B2D5
S1130BA003930292013BB8E7FFFF0000FEFF000041
S1130BB0F7B508AC24780726019414003440A44601
S1130BC001246546AC40050092352F78E4B2002537
S1130BD0012F02D82500012F15D0B2431600026858
S1130BE0127C724392B25118426B5118019A002A36
S1130BF00BD10A78013B2A4362409BB20A7001314F
S1130C00002BF6D1F7BD0024E7E707000126923751
S1130C1001970A7807272A4362400A706246013224
S1130C201740013BBC469BB2002F0AD1428F891862
S1130C30019A1278012A02D83500012A05D034001D
S1130C4003E06D006400EDB2E4B2002BE1D1D9E71A
S1130C500300F0B538331D780168AAB2D300838746
S1130C600B7CDB004387030039331F78BEB2F300EB
S1130C70C3874C7CED19A54201DDA21B92B2841CF2
S1130C80D200E3879B18021DD3878A8A831DDA87E3
S1130C90CB8A0830C387F0BD37B50500083506ACEC
S1130CA0ED8F2478AA1A92B2E50705D5D21A92B22A
S1130CB00094FFF738FE37BD013AF8E7F0B50600B7
S1130CC005000700040085B05630523654355037BD
S1130CD033882A8839880390008800902000FFF721
S1130CE0D2FE23008C33002802D1187005B0F0BD69
S1130CF001221A70230048333A881988914200D29D
S1130D001A8023004A3332881988914200D91A8004
S1130D1023004C332A881988914200D21A80039BFD
S1130D204E341B8822889A42E0D92380DEE70300F0
S1130D30002210B548331A80821DD28F5A80821C3B
S1130D40D28F9A80021DD28FDA80FFF7B7FF10BDD1
S1130D5010B5FFF77DFF10BD0200002310B550321F
S1130D60138093800232013B13809380036B5B6892
S1130D70984710BD70B50400E362230000253833A2
S1130D806163A5651A705D7035331D7024331D7061
S1130D902200043B1D700123923204981370537097
S1130DA003682063200098472000FFF7D5FF200048
S1130DB07034FFF7A5FD257070BD0000002902D036
S1130DC088B20A2900D101487047C046FFFF0000DD
S1130DD000230730C377704710B50A000469002365
S1130DE02021A04710BD10B5130004690A00172183
S1130DF0A04710BD07B56B46DA1D11700121FFF73E
S1130E00F2FF0EBD10B50A00C46800231521A047E7
S1130E1010BD10B50A00C46800231621A04710BDF8
S1130E2010B51300C4680A001721A04710BD0023A1
S1130E3010B51A00C4681821A04710BD002310B5CE
S1130E401A00C4681921A04710BD73B505000C0031
S1130E502178172918D002D815290CD273BD192965
S1130E601BD9FE29FAD16B46627829212800DA7150
S1130E7000F038F906E06B4662782800DA71EE6813
S1130E800023B0470234E3E76B46DA1D637801219F
S1130E9028001370FFF7C4FFF4E7002328001A00AA
S1130EA0EE680134B047D3E7F7B501930B00143B68
S1130EB004000E0015000020052B0ED8180002F0C7
S1130EC02FF91103030D111100212000FFF784FFF6
S1130ED029002000FFF78EFF0120FEBD0121200024
S1130EE0FFF77AFF2769019B2A0031002000B847E9
S1130EF0F3E701608B7C0330C3777047002370B540
S1130F001A00282145690400A8470023E5681A004F
S1130F1014212000A847200001224B2100F0E2F810
S1130F20236820001A79292100F0DCF8200000222F
S1130F304B2100F0D7F8236820001A79292100F00A
S1130F40D1F8200001224B2100F0CCF8236829219C
S1130F505A79200000F0C6F870BD13B56C462371B1
S1130F60049B6171A271009384686B4601220F2176
S1130F70A04716BD002310B51A0084680921A047B4
S1130F8010BD002310B51A0084680A21A04710BDC3
S1130F9010B50A00846800230B21A04710BD10B5CA
S1130FA00A00846800230D21A04710BD10B50A0073
S1130FB0846800230E21A04710BD002310B51A0039
S1130FC084681021A04710BDF7B504000E00150079
S1130FD01F000E2941D00F290BD000200B2907D167
S1130FE02349002A00D023492000FFF72EFF0120C7
S1130FF0FEBDFFF71CFF10217B79E21CD27FDB00D2
S11310009B18DBB201931B0919432000FFF7FAFE7A
S1131010019920003140FFF7F5FEB023B979200093
S11310201943FFF7EFFE3E79019BF600F6B2F31881
S11310303F68842B04DD7C26019B7642F61AF6B2C7
S1131040013D3A0031002000EDB2FFF7E9FE002D2A
S1131050F6D12000FFF7F2FEC9E7FFF7E8FE812191
S11310602000FFF7CFFEA9082000FFF7D2FEF0E72B
S1131070C4A70000CBA7000070B504000D00160043
S1131080FFF7A2FF002809D10A2D09D00D2D0FD09A
S1131090092D04D10F492000FFF72BFF012070BD5B
S11310A02000FFF72BFF0C492000FFF7CEFEF5E7E9
S11310B0E51C002E07D109492000FFF7C6FE23686E
S11310C09B7CEB77EAE706492000FFF7BEFE236826
S11310D0DB7CF6E704A80000E0A70000D2A700002C
S11310E0D9A7000010B500234469A04710BD002013
S11310F0704700000023084A03608260C2600261F6
S11311004261021DD377C21DD3778361421DFF3331
S11311102830D37703707047EF100000F8B504004F
S11311200F0016001D00FFF7E5FF069BA760E660B1
S1131130256163612000FFF71DFFF8BDFEE7000095
S11311401148124970B5884204D00023104CCA18C3
S1131150A24213D300210F4B0F4A934212D3FF2113
S11311600E4B0F4A8B43936080230E4A51680B4306
S1131170536004F019FC01F07FFDFEE7C558043309
S11311801560E4E702C3E8E71CAE0000000000209D
S1131190C0090020C0090020C41000200000000085
S11311A000ED00E000400041144A154B10B55A8090
S11311B00222144B1449DA67144B1A001800A8329F
S11311C011601349C1301160042102781C008A4364
S11311D0027001220178B0349143114301700F2051
S11311E02178B43301402170217E91430A43227651
S11311F01A7882431A7000F095F810BD034000007D
S1131200000C00400800006002000240004400415D
S1131210000002C010B5024800F044F810BDC046FA
S113122010E000E0F8B500F005FAC021194BC9053B
S11312300C001A00C02601201F00174DA832943458
S1131240883136062060C0370860156016603D7826
S113125085433D70802525600D60104D1560166036
S11312601E00C7363578DF338543357080256D0021
S1131270256080252D0625600D608021C90511603B
S1131280074911601A7882431A70FFF78DFFFFF740
S1131290C1FFF8BD0044004101000040800000404F
S11312A0008000C010B5024B186000F0A1FD10BD15
S11312B0DC0D0020044B10B51C6800F0A9F90100F6
S11312C0200000F09FFD10BDDC0D0020044B10B584
S11312D01C6800F0A9F90100200000F093FD10BD86
S11312E0DC0D002070B5032100250D4C4B195B105B
S11312F0DAB2022B08DCDB00E6187668864204D1F9
S1131300E358002B00D0984770BD864204D20132C6
S1131310D5B28D42EAD9F7E7013AD1B2F9E7C0462E
S1131320E00D00200121002210B5064B494259600E
S11313301A60D9609A6059611A61034800F098F9FB
S113134010BDC046E00D0020E5120000244BF7B5A7
S11313505A68904210D0DA6890420FD05A6982429B
S11313600ED10222D2009950002900D0012100F0B0
S1131370C1F902001000FEBD0022F3E70122F1E7EB
S1131380002902D10D225242F4E71A68002A08D03B
S11313909A68002A22D00D221C695242002CE9D1FD
S11313A00F32D2001D0099509A1894461835506097
S11313B0019561465C684D68A5420AD2651C08D057
S11313C01F0065461968009142CD42C700995460D8
S11313D01160019908339942EBD1C7E70122E0E794
S11313E0E00D00201FB514001438828B01AB1A8065
S11313F0054A0391190002945A8000F075FB0028F5
S113140000D1200004B010BD0080FFFF1FB5140000
S11314101438828B01AB1A80054A03911900029497
S11314205A8000F061FB002800D1200004B010BDF8
S11314300180FFFF10B5040000F0F8FA002803D182
S1131440024BA361024B636110BDC0460D14000042
S1131450E513000010B500F023FB10BD80238905BF
S1131460DB00890D1A400A43828310007047000094
S1131470F0B587B01E006B46D9711700828B03ACA0
S11314802280012204920022073321000500628099
S1131490059300F029FB002807D1054B2100280003
S11314A06380A760666000F01FFB07B0F0BDC04614
S11314B00180FFFF143008600020704710B50368F6
S11314C0984710BD10B54368984710BD10B5040087
S11314D04160043000F072FB002806DB0020034B5F
S11314E0A382034B2361034BE36010BD0080FFFF25
S11314F0351500001F15000010B5043000F0C0FBC6
S113150010BD7FB50B68043003934B6804938B685C
S113151003A90193059300F0B7FB07B000BD1FB505
S1131520002301910C3801A902930392FFF7E9FF0C
S113153005B000BD1FB5002302910C3801A9019329
S11315400392FFF7DEFF05B000BD0C3008600020F9
S11315507047F8B504000F00160025000835280070
S113156000F055FA0028F8D00024395D280000F076
S113157046FA280000F04BFA0028FAD00134B442AD
S1131580F3D3280000F048FA0028FAD02000F8BD70
S1131590F7B507000E00002401923D00083528002D
S11315A000F03FFA0028F8D0280000F02CFA019B44
S11315B0305501349C42F0D32000FEBD10B5040028
S11315C0083000F00DFA002803D1024B6360024B8F
S11315D0236010BD911500005315000010B50830AC
S11315E000F004FA002010BD0860002070470000DD
S11315F0054B02001968002901D1044919601868D3
S113160082181A607047C046F80D0020C8300020C8
S11316100300F0204000584310B501380A2101F0BE
S113162089FD013010BD0000014B58437047C0468E
S113163080BB0000062310B5084A51680B43536071
S113164000F0EAF800F070FB082000F0C5F800F0A4
S113165099FBF72000F0C0F810BDC04600400041DF
S1131660024A5378DB09FCD17047C0460018004099
S113167070B51B4C0600FFF7F3FFFFF7F1FF23786B
S11316809B0705D500232370FFF7EAFFFFF7E8FF68
S113169001232370FFF7E4FFFFF7E2FFA0230025F7
S11316A0DB00A57063608023DB0163619023A36189
S11316B00C4BE3610223227813432370FFF7D0FF1E
S11316C010230949094ACB67BFF34F8FBFF36F8FCC
S11316D0C021490053501360054B28001E6070BDA3
S11316E0001800400A02000104E100E000E100E00B
S11316F0FC0D0020212816D0282816D00A2816D040
S11317000D235B423E280CD110330D4ADB00985C5C
S1131710FF2811D001230B4A8340002909D0D3604C
S11317200023180070470023EFE70123EDE70223AD
S1131730EBE793601361F3E70D235B42F1E7C046E7
S11317401CA8000000180040F0B501261F4D85B00C
S11317502B69EA68764213400393039B2B61039B36
S1131760002B1AD105B0F0BD03200022184F8318B6
S11317705B10D9B2DB000191D95D8C46A1421AD12C
S1131780FB185E68731C03D0124B30001B6898472B
S11317900122A240039B93430393039801F09AFE12
S11317A0013844B2631CDFD12B69EA681340039308
S11317B0039B2B61D3E70199A44504DA0131CAB232
S11317C09042D4D2DEE70139C8B2F9E700180040EC
S11317D01CA80000FC0D0020C3070AD4030707D58A
S11317E0094B0A4A9A600A4A5A605A78D209FCD1CB
S11317F070478022044B52009A60064A5A605A7815
S1131800D209FCD1EAE7C046000C00400304000002
S11318100304010000070100064B1A7AD2B21A72BF
S11318205A7AD2B25A729A7AD2B29A72DA7AD2B214
S1131830DA72704700040040038ADB0BFCD1704766
S1131840038ADB0BFCD17047038ADB0BFCD17047A6
S113185010B50400FFF7F8FF2000FFF7F5FF236839
S11318609B0707D5002320002360FFF7EDFF20002E
S1131870FFF7EAFF012320002360FFF7E5FF2000C4
S1131880FFF7E2FF074B20002360FFF7DDFFC023D3
S11318909B0263602000FFF7D7FF0020024B6381A7
S11318A0207210BD040010402BF6FFFF044BC0183B
S11318B0800AC0B2043843425841C0B27047C0469F
S11318C000F8FFBDC02310B542689B021343436078
S11318D0FFF7B2FF10BD0000F8B50F0006001400BA
S11318E03D00FFF7A9FF0123328A1D4092B2022175
S11318F0002D41D00A420FD08021B37313405D42C2
S11319005D41608849010143618061883348053D38
S1131910014061802800F8BD04236568134014D099
S1131920002D04DD802362885B0113436380638898
S11319301BB2002B02DA3000FFF7C4FF6388274A8A
S11319401340638002256D42E4E7002D0BD16388C8
S11319501BB2002B02DA3000FFF7B4FF63881F4A82
S113196013406380D6E7A268013D117801323176D5
S1131970A26065600025CDE70F42CBD06368002BE1
S113198029D0520727D4013B6360002B07D1802361
S11319907268DB02134373603000FFF74DFF636826
S11319A0002B10D163880D4D1BB2002B08DA73682D
S11319B030002B407360FFF73FFF3000FFF782FFDA
S11319C063882B406380A3685A1CA260327E1A701D
S11319D00223B373CEE70223B373B3E7FFFEFFFF23
S11319E010B501600800FFF733FF10BD022310B5E6
S11319F00068026813430360FFF726FF10BD036805
S1131A0089B2198370470368188BC0B270470368A2
S1131A10987B0123184070470368987B8007C00FA8
S1131A2070470368987B4007C00F704770B5060085
S1131A3008000C00FFF73AFF346105002000FFF7AF
S1131A40FBFE2000FFF7F8FE23689B0707D5002361
S1131A5020002360FFF7F0FE2000FFF7EDFE0123D6
S1131A6020002360FFF7E8FE2000FFF7E5FE1820C2
S1131A7002236843094D2D186A6820009A432260A6
S1131A80FFF7DAFEAB6820006360FFF7D5FEAB8991
S1131A90002063812B8AF38170BDC0463CA80000FE
S1131AA0F8B5022304690426226820001343236046
S1131AB0FFF7C2FE10270B4D2000FFF7BDFE0322E7
S1131AC0238A1B091340012B01D10020F8BD013DDD
S1131AD0002DF1D1013E002E01D02782EBE7062034
S1131AE04042F3E7FFFF0000F8B5802342885B0023
S1131AF004000D0006699C461A424BD14A881A43D9
S1131B004A80020089C989C263467268300013435F
S1131B107360FFF791FE2769264A7B6838001340FB
S1131B207B60FFF789FE0121628823880A405B00FD
S1131B301343DBB23B753800FFF77EFE802303229C
S1131B4020695B02817B013BC9B2002B0BD13800B9
S1131B502200FFF7C1FE0327002807D06388164A36
S1131B6013406380F8BD1142ECD0F0E78022638813
S1131B7052001342F6D0802322695B02917B013B21
S1131B80C9B2002B08D03942F8D022003000FFF748
S1131B90A3FEEBE706200BE06B881BB2002B02DAF6
S1131BA03000FFF78FFE05206388034A13406380EB
S1131BB04042D7E7FFFFFBFFFFFEFFFF254B70B559
S1131BC0CB189B0ADDB206000C00002D06D0012DB7
S1131BD004D00D204042052D3BD1033D2000FFF7EA
S1131BE02FFE2000FFF72CFE23689B0707D5002358
S1131BF020002360FFF724FE2000FFF721FE0123CD
S1131C0020002360FFF71CFE2000FFF719FE124995
S1131C102D01685C4D196A78AB78120202431B04EB
S1131C201A43EB7834601B0613430C4A200013401C
S1131C302360FFF705FE802307229B0263602B7B52
S1131C400020A3722B79207213405A1E9341013352
S1131C50337170BD00F8FFBD6CA80000FCFEFFFFEF
S1131C6010B50068048AE40B07D102230268134309
S1131C700360FFF7E5FD200010BD04204042FBE7B0
S1131C8010B5FFF7EDFF10BDF7B5009103790568B6
S1131C9001932C8A0F684E68E40B2FD12800FFF7BC
S1131CA0CFFD2B689B072CD5042320009C460121E3
S1131CB06246AB7BDBB2134225D02B8B9BB2002E4A
S1131CC004D0019A3370012A0DD801360134009BE7
S1131CD09B689842ECD3A342EAD80323AA7B1A4216
S1131CE0FCD0AB73FEBD1B0A73700236EEE77B7843
S1131CF002371B021A4311E00A4A0FE00420404253
S1131D00F0E71420FBE7A042E1D80B42DFD0002F1C
S1131D10F2D0019B3A78012BE9D8013793B2013014
S1131D202B83D4E7FF010000134B14481A6A196A85
S1131D300240890F1248890701430A43FE211A62AF
S1131D409A69C90311400E220A431F219A611A7F1E
S1131D500A401A770422D9681142FCD0802299697A
S1131D600A439A610822D9681142FCD08022196A78
S1131D700A431A627047C046000800400000FF0F83
S1131D80020300000222164B9A840E32D9681142D3
S1131D90FCD0144ADA62144A1268920E3F2A0ED01A
S1131DA08021920289000A439A6202229A849A8CC0
S1131DB0520707D41022D9681142FCD007E0FC2254
S1131DC0D201F1E7D021DA680A40D02AFBD180227F
S1131DD0998C0A439A84054A5378DB09FCD17047ED
S1131DE0000800400000010424608000000C004052
S1131DF0024B034A5A6005221A60704710E000E063
S1131E00FFFFFF0070B580250B0E0C4A0C4CD8B2B6
S1131E106D020138C0B2FF280AD118061B1A5918DE
S1131E20802351605B02916011681942FCD070BD3F
S1131E305460946016682E42FCD0EAE710E000E09B
S1131E40FFFFFF00064B07B51870002301A90B70B4
S1131E500D334B7003221A338B7000F0FFFB0EBD61
S1131E60000E0020002313B501AC23706370064BF1
S1131E70010022001878022300F01AFC237860780D
S1131E801B02184316BDC046000E002070B50400A6
S1131E900120FFF7E7FF00B200283EDD03F0A6FAB9
S1131EA0284A294B02F0D8FC03F06CFB061C0220E4
S1131EB0FFF7D8FF03F09AFA244A254B02F0CCFC32
S1131EC003F060FB051C01F00FFB80B2A060301C26
S1131ED002F0D8F800B260601E49301C01F016FE12
S1131EE0291C01F013FE1C49061C2061281C01F06A
S1131EF0A9FA002816D01949301C01F007FE011C6C
S1131F00606901F0C9FB60611549606901F0FEFD7B
S1131F1001F0EAFA2073012070BD03F067FA114A58
S1131F20114BBFE766691149301C01F09FFA0F4D50
S1131F30002804D0291C301C01F008FFA061656151
S1131F40E2E7C046B599547E63D9F13F276D47C493
S1131F50D6F4F33FBD37863500A85E46B4A2913966
S1131F602449123FB74470545555F23F00002F43A3
S1131F7070B51F244209C0B20440FF234D1C09D18F
S1131F801A40D201144BA218D218137802318B4391
S1131F90137070BD01251340104ADB019B181E19F4
S1131FA040363278AA432A4332706208284209D064
S1131FB00F209A1830321378090103401943C9B22B
S1131FC01170E6E70F209B1830331A7801408243E2
S1131FD011431970DDE7C04640440041004400410C
S1131FE01F22430910401E3A8240012916D00029BD
S1131FF002D0022920D07047C021DB01C90559183D
S11320004A60802190B2C905014313481B189962A4
S1132010110CC02212060A439A62ECE7C021DB01CC
S1132020C90559184A600D4990B201430A481B1862
S11320309962110C0A4AEEE7C021DB01C90559185F
S11320408A60802190B2C90501430348120C1B1811
S11320509962C0210906DEE7004400410000024005
S1132060000002C0024A1378013313707047C0465F
S1132070010E0020024A1378013313707047C046E2
S1132080030E0020024A1378013313707047C046D0
S1132090020E002010B504493E20FFF757F903480B
S11320A0FFF72AFA10BDC04685200000800E0020EC
S11320B010B502492820FFF749F910BD652000003A
S11320C010B502490A20FFF741F910BD7520000040
S11320D00022024B18781A707047C046030E002085
S11320E00022024B18781A707047C046010E002077
S11320F070B50024074D2B78A34208D000F0D2FC21
S1132100054B2C7018608479631E9C41E4B2200056
S113211070BDC046020E0020D00E0020014B18688E
S11321207047C046D00E0020C0238022DB05520534
S1132130002801D09A6170475A61FCE710B5034B3F
S11321400A0001001868FFF7BDF910BD7C0E0020DD
S113215010B5FFF7F3FF10BD10B5034B0A000100E3
S11321601868FFF7ABF910BD7C0E002010B5FFF71F
S1132170F3FF10BD07B56B46D91D034B0870012250
S11321801868FFF79BF907BD7C0E002013B56B465A
S1132190DC1D00232370044B012221001868FFF783
S11321A091F9207816BDC0467C0E0020F8B50426AF
S11321B0354A364C136A364933431362354A364B33
S11321C020005A80FFF782F934492000FFF7BDF957
S11321D0C0252000FFF790F91023ED056B61300056
S11321E00221FFF7FDFE30002D49FFF7C1FE202339
S11321F002216B610520FFF7F3FE2A4C2A490520D2
S1132200FFF7B6FE01210620FFF7EAFE2200463260
S113221013782649B34313700620FFF7A9FE2F0055
S113222080239837AB61403B3B604033AB61022174
S11322300720FFF7D5FE1E4B033E1B781C4AB34311
S11322401370402302213B602620FFF7C9FE2200C1
S1132250C6321378C934B343137080239B003B60A8
S113226002212920FFF7BCFE23780221B343237007
S113227080230720AB61FFF7B3FE0D4B0C4A1B789C
S1132280B3431370F8BDC04600040040B80E0020EC
S1132290000800420D400000000C00400C0F00201C
S11322A0030004000044004103000500030006008D
S11322B04744004110B5034B0A0001001868FFF7BA
S11322C0FDF810BD0C0F002080239B00002802D1D4
S11322D0024A13607047024AFBE7C0469800006058
S11322E0940000604023002802D0024A1360704723
S11322F0014AFBE7980000609400006000207047EA
S1132300143910B508000C291AD800F009FF171960
S1132310190713171919191919190D0091B2180071
S1132320FFF7C8FF012010BD511E8A41D0B2FFF74C
S1132330D9FFF7E70120FFF7C7FFF3E70020FAE72B
S11323400020F0E770B5C0240425E405A561012050
S1132350FEF7BCFF65611420FEF7B8FF70BD0000F6
S11323600821F8B54C4A4D4C136A20000B43136204
S11323704B4A4C4B4C495A80FFF7A8F8C0254B49AF
S11323802000FFF7E2F8200001240227ED05FFF703
S1132390B3F86C6102210020FFF722FE0321002024
S11323A0FFF7E6FD6F6139002000414EFFF718FE8C
S11323B020004049FFF7DCFD21001220FFF710FE4A
S11323C0320004215232137812208B4313703A499D
S11323D0FFF7CEFD0423390038006B61FFF700FEE0
S11323E0320042321378A3431370FFF7ABFF80230C
S11323F05B053900AB611C20FFF7F2FD32005C3253
S113240013783900A343137080231B04AB61172096
S1132410FFF7E6FD3200573213783900A3431370F7
S1132420082303206B61FFF7DBFD3200433213788E
S11324303900A34313702B00102298331A60242010
S1132440FFF7CEFD3200C43213782100A34313708A
S11324502520FFF7C5FD33000421C5331A783E203B
S11324608A431A701A782100A2431A70FFF7B8FD44
S11324702B0080220421D2050833DA67DE36337854
S113248094350B43F821337089032A603E20FFF70B
S11324906FFDFFF7FFFDF8BD00040040800E002033
S11324A00E400000000C0040000C00427C0E002096
S11324B0004400410300010002001200402370B5F3
S11324C01F4A204E116A204C0B4313621F4B204AB3
S11324D030005A801F4A20495A80FEF7ABFF220081
S11324E00425CC3213781D49AB4313702C20FFF71D
S11324F03FFD2200CD3213781949AB4313702D20D0
S1132500FFF736FD17493000FEF7D4FF3000FEF721
S1132510A1FF01212820FFF763FDC023DB051A007A
S1132520802108324900D167C83422789833154392
S1132530257028201960FFF71BFDFFF7B9FD70BD5A
S113254000040040980E002000440041000C0040AC
S1132550114000000C4300000018004202002C004F
S113256002002D00D80E0020102370B51C4A1D4E09
S1132570116A1D4C0B4313621C4B1D4A30005A80D8
S11325801C4A1D495A80FEF755FF22000425483293
S113259013781A49AB4313700820FFF7E9FC2200B3
S11325A0493213781649AB4313700920FFF7E0FC56
S11325B014493000FEF77EFF3000FEF74BFF012187
S11325C00A20FFF70DFDA0214A3423780903AB4309
S11325D023700A20FFF7CCFCFFF772FD70BDC046E4
S11325E000040040DC0E002000440041000C0040C8
S11325F00F4000000C4300000010004203000800DC
S113260003000900780E002070B5140080220D002C
S1132610120101B20548FEF721FF054B2900A2B2C1
S11326201868FEF74BFFC043C00F70BDDC0E0020DE
S1132630780E002070B5150080220C00064E01B201
S113264012013000FEF70AFF2B00300022000021A7
S1132650FEF70EFF70BDC046DC0E002070B51400FE
S113266080220D00120101B20548FEF7F7FE054B6A
S11326702900A2B21868FEF721FFC043C00F70BD45
S1132680980E0020D80E002070B5150080220C0092
S1132690064E01B212013000FEF7E0FE2B003000BE
S11326A022000021FEF7E4FE70BDC046980E002013
S11326B0F8B5150080221E000C00064F01B212016D
S11326C03800FEF7CBFE33002A0038002100FEF765
S11326D0CFFEF8BD980E0020202310B50E4A0F4CF3
S11326E0116A20000B4313620D4B0E4A0E495A80A7
S11326F00022FEF763FF0D491020FFF739FC0C4957
S11327001120FFF735FC0B492000FEF76DFF200078
S1132710FEF764FF10BDC04600040040000F002017
S1132720000C0040104000000014004203001000A0
S113273003001100D40E002010B5034B8AB201002F
S11327401868FEF7BBFE10BDD40E002010B50020A3
S1132750FFF7EAFC10BD10B50120FFF7E5FC10BD42
S113276010B50400FFF7F2FF7F202040FFF702FDC1
S1132770FFF70CFD0400FFF7EEFF200010BD70B55D
S11327800D000400FFF7E2FF80202043FFF7F2FC76
S11327902800FFF7EFFCFFF7DEFF70BD10B5FFF771
S11327A0D1FD1020FFF7DCFF04210120FFF7E7FF34
S11327B02720FFF7D5FF8F213C20FFF7E0FF3021D2
S11327C06F20FFF7DCFF55215A20FFF7D8FF702157
S11327D05C20FFF7D4FF2E20FFF7C2FF2D212F200E
S11327E0FFF7CDFFD4213020FFF7C9FF88212E2029
S11327F0FFF7C5FF01210220FFF7C1FF00210320DD
S1132800FFF7BDFF80210420FFF7B9FF1021052049
S1132810FFF7B5FF00210620FFF7B1FFE0211920E3
S1132820FFF7ADFFE0211A20FFF7A9FFD0213720E1
S1132830FFF7A5FF00212C20FFF7A1FF04212D2085
S1132840FFF79DFFD9210720FFF799FF00210820FA
S1132850FFF795FF00210920FFF791FF3D20FFF7C7
S11328607FFF040002213D20FFF789FF1F21112073
S1132870FFF785FF40212520FFF781FF102101206C
S1132880FFF77DFF200010BD10B55D215A20FFF732
S113289076FF7C215C20FFF772FF10BD10B5012884
S11328A002D1FFF7F1FF10BD55215A20FFF767FF52
S11328B070215C20FFF763FFF5E7000070B5284D39
S11328C004002B7883421BD0042819D81C2600F05E
S11328D027FC3B352A1803000120FFF741FF0C2198
S11328E0B0430143C9B20120FFF749FF1D4B1B78D8
S11328F0002B01D0FFF7C8FF2B78002B2AD02C70B7
S113290070BD0120FFF72CFF1021B0430143C9B271
S11329100120FFF734FF134B1B78002BECD0002071
S1132920FFF7BCFFE8E70120FFF71AFF0821B043D7
S11329300143C9B20120FFF722FFDDE70120FFF7C1
S11329400FFF0421B043F3E70120FFF709FFB04371
S1132950C1B2EFE72720FFF703FF0306CCD5CEE78C
S1132960010000200000002010B50E4C0F21207043
S1132970002800D10B311320FFF701FF2378012B2E
S11329800AD11120FFF7ECFE1F2108404131014319
S11329901120FFF7F4FE10BD034B1978802319436F
S11329A0F6E7C046000000200200002070B50100D8
S11329B0012806D02420FFF7D3FE404200B2401085
S11329C070BD2320FA24FFF7DAFE0225A400232099
S11329D0FFF7C6FE2842EDD1013CA4B2002C03D07F
S11329E00A20FEF767FCF2E70048E9E719FCFFFF5D
S11329F070B50400FA2600200D00FFF75FFFB60053
S1132A002720FFF7ADFE03062ED523783D2B01D9F1
S1132A103D232370FFF79AFE8020FFF7ABFB20785D
S1132A200530C0B2FFF7A6FB6078FFF7A3FBA078E0
S1132A30FFF7A0FBE078FFF79DFBE079FFF79AFB37
S1132A4021782800FFF792FBFFF785FE0420FFF7AB
S1132A5035FF642408252820FFF782FE28420BD086
S1132A600320FFF72BFF06E0013E0120B6B2FEF77C
S1132A702DFC002EC4D170BD013CA4B2002CFAD0B0
S1132A806420FEF717FCE6E70200002310B5141AD1
S1132A90A14201D8180010BD147801321B19DBB211
S1132AA0F5E7000037B52820FFF75AFE04232A4C27
S1132AB018404FD0294D3E220021280002F0DAFFB1
S1132AC001210800FFF75BFEFFF740FE0020FFF73F
S1132AD051FB05216846FFF73BFB6B466A461B78B2
S1132AE0053BDBB22370527862706A469278A2701A
S1132AF06A46D278E2706A461279E271372B1ED99F
S1132B003823237021782800FFF722FBFFF723FEE8
S1132B1021782800FFF7B8FFE379834211D14021DF
S1132B202520FFF72CFE10210120FFF728FE0020AE
S1132B30FFF73CFFA0800320FFF7C0FE05E0002B59
S1132B4005D10023A371FFF706FE20003EBD01233B
S1132B50A371D7E7A071F8E7120F0020380E002008
S1132B60102370B50C4C0D4D62780D4913436370FE
S1132B7011236A783220134303226B70FFF744FD5C
S1132B80290002223220FFF73FFD022221003220D9
S1132B90FFF73AFD70BDC046080000200600002083
S1132BA0030000200A23020953430F22104018187F
S1132BB0C0B2704713B50722040069463220FFF7FC
S1132BC039FD6B461878FFF7EDFF6B462070587897
S1132BD0FFF7E8FF6B4660709878FFF7E3FF6B46FA
S1132BE0A070DB7823726B461879FFF7DBFF6B4626
S1132BF0E0705879FFF7D6FF6B4620719879FFF79C
S1132C00D1FFE08013BD70B50A21050000F092FAEF
S1132C100A210401280000F013FB6418E0B270BD1F
S1132C2013B500236A46040000781370FFF7EBFF26
S1132C306B4658706078FFF7E6FF6B469870A07893
S1132C40FFF7E1FF6B466A46D870237A1371E07888
S1132C50FFF7D9FF6B4658712079FFF7D4FF6B4615
S1132C609871A079FFF7CFFF6B460822D8716946A7
S1132C703220FFF7C9FC13BDF0B5724C4026A544C1
S1132C80FDF740FAFFF792FAFFF76AFBFFF716FC2D
S1132C90FFF76AFC6C4D2800FFF762FFFFF71CFD8D
S1132CA02122D92011008000FFF778FD0120FFF7D1
S1132CB05BFE664C032221000CA802F099FEE11C85
S1132CC003220DA8C02402F093FE28008025FFF7FC
S1132CD0A7FFE40503220CA92720FFF7BFFC6561C9
S1132CE00A20FEF7F3FAA5610A20FEF7EFFA584C22
S1132CF0584B594A59492000FDF76EFB2000FEF756
S1132D0040F900212000FEF743F901212000FEF7DD
S1132D1046F96E212000FEF749F92000FDF7A0FADC
S1132D202000FDF7AAFA4E492000FDF7EFFD00222E
S1132D3005231100019320002B000096FDF7E6F90E
S1132D40484B0F2214212000FDF7A0FD464B1E2204
S1132D5023212000FDF79AFD44492000FDF7D6FD0C
S1132D60434B282207212000FDF790FD2000FDF7AA
S1132D7084FA2000FDF774FA3000FFF763F83D4849
S1132D80FEF7A4FA3C4A3D4B01205A80A5233C4956
S1132D903C4A0B7210600230069007300590079190
S1132DA0099208936A4620215218079B12781A72D6
S1132DB0079BDB79DB09FBD1FFF792F9041E21D0D5
S1132DC00BAC022221002720FFF75EFC01232278AE
S1132DD00DA9134007D0500705D410204C78204388
S1132DE048700A200590520707D5002B05D14A7870
S1132DF0103313434B700A23059303222720FFF754
S1132E002DFC0124FFF774F9002854D001261E4B31
S1132E101E60FFF783F905000423C25E1B490EA858
S1132E2002F072FEEB78812B00D13CE1822B33D08F
S1132E30122B00D041E11C221549164802F0D8FD9E
S1132E4036E0C046ECFDFFFF0A0000209CA800000D
S1132E50A80F0020FD22000001230000B8A70000F5
S1132E605C9F0000A2A80000AEA80000F0A3000030
S1132E70B7A800006608000001430000000C0040F1
S1132E80001000409400006098000060D0A800008A
S1132E90380E00207C10002092492A7844A802F0C1
S1132EA0A7FD44A802F052FEC1B244A8FFF744FCB7
S1132EB00123099A1360FFF70BF9002800D10CE1F4
S1132EC08948FFF777FE894D0DAC2800FEF7DEFF39
S1132ED0059A1023002A00D1F3E06278134363704B
S1132EE0059B013BDBB205936B68D9175A184A401E
S1132EF0142A01DD0A2205921E2B09DC7C4B5B6837
S1132F00DA179B185340FA229200934200DCDCE06B
S1132F100822637893436370069B002B00D0D8E0AB
S1132F201C21744EFE337370DD3BB3702800623392
S1132F30F3703170FFF7A8FD2900F0713000FFF73E
S1132F4057FD03230322210027200693FFF786FB66
S1132F50694C6A492000FDF7D9FC0EAB0A226421B2
S1132F602000FDF793FC20006549FDF7CFFC5E4986
S1132F7014A84B788A7809780091624902F0C4FD5C
S1132F8014AB0B221E212000FDF780FC0523002238
S1132F9001933B330093110020004033FDF7B6F852
S1132FA00C22200000927C230321FDF785FD4F4D68
S1132FB055496B68AA6824A802F0A6FD24AB172221
S1132FC003212000FDF762FC286902F089FA06005B
S1132FD068690F0002F084FA3200009001913B000E
S1132FE04A4924A802F090FD24AB212203212000A9
S1132FF0FDF74CFC20004149FDF788FCA86902F06C
S11330006FFA2E7B009001913200414924A802F00E
S11330107BFD24AB292203212000FDF737FC2C2261
S11330207C23009203212000FDF746FD304DA86863
S113303001F098F8374900F069FD02F051FA0600F2
S113304028690F0002F04CFA02900391686801F0BD
S113305039F8304900F05AFD02F042FA320000908B
S113306001913B002C4934A802F04EFD34AB3622CA
S113307003212000FDF70AFC686901F003F82E7BA8
S113308002003300254934A802F03EFD34AB3E2251
S113309003212000FDF7FAFB2000FDF7EEF82000E5
S11330A0FDF7DEF87EE6104D0A220E49280002F0F4
S11330B09FFC2800FFF7B4FDFAE63000FEF7FAF8AB
S11330C0F6E662789A4362700EE708236278134347
S11330D021E7069B013BDBB234E7002C00D161E61B
S11330E036E7C046380E00200A00002044100020B5
S11330F07C10002062100020A80F0020F0A3000024
S11331005C9F0000D5A80000E4A80000F3A800001C
S113311003A900006F12833A1CA9000037A900001C
S113312002B4714649084900095C49008E4402BC56
S11331307047C046002243088B4274D303098B4274
S11331405FD3030A8B4244D3030B8B4228D3030C73
S11331508B420DD3FF22090212BA030C8B4202D315
S11331601212090265D0030B8B4219D300E0090A3D
S1133170C30B8B4201D3CB03C01A5241830B8B4246
S113318001D38B03C01A5241430B8B4201D34B032F
S1133190C01A5241030B8B4201D30B03C01A524194
S11331A0C30A8B4201D3CB02C01A5241830A8B4219
S11331B001D38B02C01A5241430A8B4201D34B0202
S11331C0C01A5241030A8B4201D30B02C01A524166
S11331D0CDD2C3098B4201D3CB01C01A524183091A
S11331E08B4201D38B01C01A524143098B4201D354
S11331F04B01C01A524103098B4201D30B01C01A7F
S11332005241C3088B4201D3CB00C01A52418308F8
S11332108B4201D38B00C01A524143088B4201D325
S11332204B00C01A5241411A00D201465241104685
S11332307047FFE701B5002000F0F0F802BDC0467A
S11332400029F7D076E7704703460B437FD400226A
S113325043088B4274D303098B425FD3030A8B4226
S113326044D3030B8B4228D3030C8B420DD3FF2290
S1133270090212BA030C8B4202D31212090265D05E
S1133280030B8B4219D300E0090AC30B8B4201D311
S1133290CB03C01A5241830B8B4201D38B03C01A58
S11332A05241430B8B4201D34B03C01A5241030BCF
S11332B08B4201D30B03C01A5241C30A8B4201D380
S11332C0CB02C01A5241830A8B4201D38B02C01A2B
S11332D05241430A8B4201D34B02C01A5241030AA2
S11332E08B4201D30B02C01A5241CDD2C3098B4287
S11332F001D3CB01C01A524183098B4201D38B0104
S1133300C01A524143098B4201D34B01C01A5241A6
S113331003098B4201D30B01C01A5241C3088B42EB
S113332001D3CB00C01A524183088B4201D38B00D6
S1133330C01A524143088B4201D34B00C01A524178
S1133340411A00D201465241104670475DE0CA0F4F
S113335000D04942031000D34042534000229C460F
S113336003098B422DD3030A8B4212D3FC22890119
S113337012BA030A8B420CD3890192118B4208D3EF
S1133380890192118B4204D389013AD0921100E051
S11333908909C3098B4201D3CB01C01A5241830965
S11333A08B4201D38B01C01A524143098B4201D392
S11333B04B01C01A524103098B4201D30B01C01ABD
S11333C05241C3088B4201D3CB00C01A5241830837
S11333D08B4201D38B00C01A5241D9D243088B428D
S11333E001D34B00C01A5241411A00D20146634630
S11333F052415B10104601D34042002B00D5494294
S1133400704763465B1000D3404201B5002000F0D2
S113341005F802BD0029F8D016E770477047C0468A
S11334208446081C6146FFE71FB500F02DFB002809
S113343001D40021C8421FBD10B500F0BFFA4042BC
S1133440013010BD10B500F01FFB002801DB002087
S113345010BD012010BDC04610B500F015FB0028BA
S113346001DD002010BD012010BDC04610B500F0E4
S1133470CBFA002801DC002010BD012010BDC0469D
S113348010B500F0C1FA002801DA002010BD0120B7
S113349010BDC046002B11D1002A0FD1002900D144
S11334A0002802D00021C943081C07B4024802A125
S11334B04018029003BDC04665FFFFFF03B4684691
S11334C001B5029800F028F8019B9E4602B00CBC9E
S11334D07047C04610B50023002802D002F044F91A
S11334E0431C180010BDC0469E2110B5C905041C1C
S11334F0FFF7C6FF002803D1201C00F0C3FD10BD58
S11335009E21201CC90500F021FC00F0BBFD802396
S11335101B069C466044F2E7F0B557464E464546C6
S1133520DE46E0B5040083B00D00924699468B4216
S11335302FD82CD04946504602F00AF9290006003B
S1133540200002F005F9331A9846203B9B4600D52B
S113355074E053465A4693401F00534642469340F4
S11335601E00AF4229D826D05B46A41BBD41002BC8
S113357000DA79E0002200230092019301235A46E5
S113358093400193012342469340009319E0824201
S1133590D0D900220023009201930C9B002B01D070
S11335A01C605D600098019903B03CBC904699464C
S11335B0A246AB46F0BDA342D6D900220023009216
S11335C001934346002BE8D0FB0772081A43464692
S11335D07B080EE0AB4201D1A2420CD8A41A9D4153
S11335E0012024196D410021013E24184D41002E73
S11335F006D0AB42EED9013E24196D41002EF8D11C
S11336005B460098019900196941002B22DB2B00CD
S11336105A46D3402A004446E2401C005B4615004B
S1133620002B2CDB26009E40330026004746BE407C
S11336303200801A994100900191AEE7424620235E
S11336409B1A5246DA40414613004A468A40170004
S11336501F4382E7424620239B1A2A0046469A408B
S11336602300F3401343D5E74246202300219B1A4D
S11336700022009101920122DA40019282E742463F
S1133680202326009B1ADE402F00B446974066464E
S11336903B003343C9E7C046F0B5C6464E02470275
S11336A0760A7B0A4400C50FF7004800984600B527
S11336B0240E2A00DB00000EC90FBC468D4267D0E1
S11336C0221A002A00DCA5E000283AD1002F00D1FC
S11336D093E0511E002900D0BCE00124DB1B5A01F9
S11336E046D59B019E09300002F014F80538864047
S11336F0844200DD9DE0041B320020200134E240BE
S1133700041BA64033005E1EB341002413435A0732
S113371004D00F221A40042A00D004335A0129D5B8
S11337200134FF2C00D181E02A009B015B0AE4B242
S11337305B02E405580AD2072043104304BC9046B8
S1133740F0BDFF2CE3D080213800C904084384462F
S11337501B2A00DD82E020206146D140821A6046A7
S113376090400200501E82410A439B1A5A01B8D469
S11337705A07CED1DE082A00FF2C3AD1002E00D100
S1133780AEE08023DB0333435B025B0AFF24CFE715
S1133790211A002952DD002831D0FF2CB7D0802017
S11337A03E00C0040643B4461B2900DDAAE02026DF
S11337B06046C840711A66468E4031004E1EB141C3
S11337C001435B185901D3D50134FF2C00D187E0A4
S11337D0012278491A405B080B40134397E7002CF9
S11337E000D0A7E0002B00D0B6E03B1E62D100263B
S11337F0002273025B0AE4B29AE7140087E7002F01
S11338004DD0481E002857D1634401245A01AFD536
S11338100224DDE7002A24D1621CD2B2012ADEDDB3
S1133820DE1B720135D5FE1A0D005CE72A00002369
S11338307EE73300604A241A134068E7002963D105
S1133840611CC8B201284EDDFF2949D063445B08DE
S11338500C005CE7FF2A41D00A0079E701229B1A99
S113386084E7002C1DD0FF2822D08024E404524297
S113387023431B2A00DD8AE01C002025D440AA1A19
S113388093405A1E9341234362460400D31A0D0009
S113389025E7002E00D026E700220024A9E70C002B
S11338A035E7002B4DD0D243002AEDD0FF28E0D1DC
S11338B06346FF240D002AE7FF290FD0010073E7B8
S11338C0002B61D0FF24002F00D120E78022414645
S11338D0D203114202D0164200D13B00FF2416E766
S11338E0FF24002324E7002CEAD1002B58D0002F1A
S11338F000D10CE763445A0100D439E72E4A0C0086
S1133900134004E701215CE7002C1ED1002B40D0BA
S1133910C94300290BD0FF2836D01B2947DC1C00E3
S11339202026CC40711A8B40591E8B41234363449B
S1133930040047E7002B18D13B1E2DD00D00FF24B7
S1133940E5E63B0004000D00E1E6FF281CD08024DE
S1133950E40449422343E0E7002F00D1D7E6DE1B0D
S113396072011FD5FB1A0D00D1E6FF24002F00D1F0
S1133970CDE680224046D2031042AFD01642ADD1EC
S11339803B000D00FF24C2E66346FF24BFE601238B
S11339907AE73B000400BAE680260022F603F0E64C
S11339A03B00B4E6331E00D0E2E6002221E7012307
S11339B0BDE7C046FFFFFF7DFFFFFFFB70B5420080
S11339C045024E024C00C30F6D0A120E760A240EF5
S11339D0C90F0120FF2A06D0FF2C03D0A24201D137
S11339E0B54206D070BD002DFCD1FF2CFAD1002EBB
S11339F0F8D18B4206D00120002AF3D12800451EBD
S1133A00A841EFE70020EDE7F0B5420045024C0283
S1133A10C30F48006D0A120E640A000EC90FFF2A74
S1133A201ED0FF2821D0002A0AD16E426E41F6B280
S1133A3000280FD1002C0DD10020002D09D005E065
S1133A40002801D1002C01D08B4211D00121584211
S1133A500843F0BD002EF7D0012001390843F8E7F0
S1133A60002DDED002204042F3E7002CDBD0F9E742
S1133A708242EBDC04DBA542E8D80020A542E8D270
S1133A800121581E0843E4E7F0B542004D024C0002
S1133A904602760A120EC30F6D0A240EC90FFF2ABE
S1133AA016D0FF2C18D0002A0AD170427041C0B23F
S1133AB0002C15D0002805D0012001390843F0BDA1
S1133AC0002C13D0994214D001205B421843F6E72E
S1133AD00220002EF3D1E4E70220002DEFD1E2E72B
S1133AE0002DE7D10020002EE9D0EDE7002DE9D12B
S1133AF0EAE7A24206DCDFDBAE4203D80020AE4296
S1133B00DAD3DCE7012049420843D8E7F8B5574641
S1133B104E464546DE46E0B54702460088467F0AE3
S1133B20360EC40F002E47D0FF2E24D0FB00802772
S1133B30FF041F43002399469A467F3E43465D0295
S1133B405800DB0F6D0A000E984643D0FF283BD087
S1133B50EB0080250022ED041D437F383618731CCA
S1133B6041469B464B46614013430F2B64D875482E
S1133B709B00C3589F46002F42D108239946063B19
S1133B80FF269A46DAE74146022A28D0032A00D1C2
S1133B90CEE0012A00D0ACE0114000200022CCB2DB
S1133BA04002D205400AE407104320433CBC90463F
S1133BB09946A246AB46F8BD002F15D10423994679
S1133BC0033B00269A46B9E7FF200222002DC5D008
S1133BD00322C3E7002D19D100200122BEE70124EE
S1133BE0FF220C400020DBE7380001F093FD76262D
S1133BF0431F9F4000237642361A99469A469DE712
S1133C000C239946093BFF269A4697E7280001F0C2
S1133C1081FD431F9D4076235B42181A00229DE7D5
S1133C2080200024C003FF22BAE73D005246ABE7E0
S1133C303D0021005246A7E73B0C9C462A04120C87
S1133C402B0C1400604665463F043F0C7C43424302
S1133C505D437B43270C9B18FF18BA4203D980238A
S1133C605B029C46654424043A04240C1219930113
S1133C705C1EA3413F0C920E7D191A43AD011543FE
S1133C802B0104D501235E466A081D40154332000A
S1133C907F32002A25DD6B0704D00F232B40042B31
S1133CA000D004352B0103D53200274B80321D4050
S1133CB0FE2A94DC0124A801400AD2B20C406FE72A
S1133CC08020C003074207D0054205D128434002A3
S1133CD0400A4446FF2263E738434002400AFF2279
S1133CE05EE70124A31A1B2B05DD0C4000220020F3
S1133CF056E75E46CBE72A002020DA40C31A9D40EF
S1133D002B005D1EAB4113435A0704D00F221A4007
S1133D10042A00D004335A0104D5012401220C40A2
S1133D2000203DE701249B01580A0C40002237E79C
S1133D3080200124C00328434002400A0C40FF2293
S1133D402EE7C04644A90000FFFFFFF7F0B54F4639
S1133D50D64646464400C0B5C20F47024802400A50
S1133D60844666467B0A4800C90F9A46240E15000D
S1133D70DB00000E8946F600FF2800D18FE0012108
S1133D804F464F403900914266D0221A002A00DC87
S1133D909DE000283DD1002E00D18BE0511E00296A
S1133DA000D0B5E001249B1B5A0144D59B019F0917
S1133DB0380001F0AFFC05388740844200DD96E00E
S1133DC0041B3A0020200134E240041BA7403B00BE
S1133DD05F1EBB41002413435A0704D00F221A402C
S1133DE0042A00D004335A0127D50134FF2C00D112
S1133DF079E001229B015B0AE4B22A405B02E405FC
S1133E00580AD207204310431CBC90469946A24648
S1133E10F0BDFF2CE0D08021C9040E431B2A7BDCBB
S1133E2031002020D140821A9640721E96410E43E2
S1133E309B1B5A01BAD45A07D0D10122DF082A4069
S1133E40FF2C33D1002F00D1A8E08023DB033B43B8
S1133E505B025B0AFF24D1E7211A00294CDD00280C
S1133E602AD0FF2CB8D08020C00406431B2900DDD3
S1133E70AFE030002027C840791A8E40711E8E4171
S1133E8006439B195901D6D50134FF2C00D185E096
S1133E9001227A491A405B080B4013439CE7002E29
S1133EA000D070E76BE73B1EC5D100227B025B0AA2
S1133EB0E4B2A3E714008FE7002E4DD0481E00287B
S1133EC057D19B1901245A01B5D50224E0E7002AF1
S1133ED025D1621CD2B2012A72DD9F1B7A0135D52D
S1133EE0F71A0D0064E7012200232A4086E73B000D
S1133EF0634A241A13406FE700296CD1611CC8B2CD
S1133F0001284EDDFF2949D09B195B080C0063E7AB
S1133F10FF2A41D00A0081E701269B1B89E7002C78
S1133F201CD0FF2821D08024E404524223431B2ABE
S1133F3000DD96E01C002025D440AA1A93405A1EA6
S1133F4093412343F31A04000D002DE7002F00D002
S1133F502EE700220024A9E70C003DE7002B58D0EF
S1133F60D243002AEED0FF28E1D13300FF240D0014
S1133F7032E7FF2910D0010078E7002B6ED0FF2430
S1133F80002E00D128E780225146D203114203D0EB
S1133F906146114200D13300FF241DE7FF240023B2
S1133FA02CE7002CE9D1002B63D0002E00D113E7BD
S1133FB09B195A0100D43EE7314A0C0013400BE729
S1133FC0002C1ED1002B2FD1002E4FD033000D001A
S1133FD002E7012655E7002C1FD1002B43D0C9432B
S1133FE000290BD0FF2839D01B2944DC1C002027D2
S1133FF0CC40791A8B40591E8B4123439B190400F2
S113400040E7002B1AD1002E24D180270022FF0381
S11340101BE7330004000D00DEE6FF281ED08024D9
S1134020E40449422343DFE7002E00D1D4E69F1B7A
S11340307A0100D437E7F31A0D00CDE6FF24002EF1
S113404000D1C9E680225046D2031042A4D0604673
S11340501042A1D133000D00FF24BDE63300FF243C
S1134060BAE601236EE733000400B5E60027002218
S11340701CE73300B0E60123C0E7C046FFFFFF7D25
S1134080FFFFFFFB41024300C20F490A1B0E002041
S11340907E2B0DDD9D2B0CDC802000040143952B31
S11340A00ADC9620C31AD9404842002A00D10800ED
S11340B07047034BD018FBE7963B9940F4E7C046A2
S11340C0FFFFFF7F70B5002830D0C317C4185C40D1
S11340D0C50F200001F01EFB9E231B1A962B0DDC3E
S11340E09622D21A94402A006402640ADBB2640263
S11340F0DB05600AD2071843104370BD992B19DC05
S11341009922D21A002A29DD94402200144C14402A
S1134110510704D00F210A40042A00D0043462015C
S113412013D4A401640ADBB22A00E0E700220023CE
S11341300024DCE705222100121AD140B922D21A48
S11341409440621E94410C43DAE7054B2A001C405C
S11341509F23A4011B1A640ADBB2C8E72200D5E737
S1134160FFFFFFFB10B5041E27D001F0D3FA9E23F6
S11341701B1A962B0ADC9622D21A94406402640A13
S1134180DBB26402DB05600A184310BD992B17DC0F
S11341909922D21A002A27DD94402200134C14409D
S11341A0510704D00F210A40042A00D004346201CC
S11341B012D4A401640ADBB2E3E700230024E0E79D
S11341C0B9222100D21A91400A00511E8A410521C8
S11341D0091ACC401443DBE7044B1C409F23A40181
S11341E01B1A640ADBB2CCE72200D7E7FFFFFFFB10
S11341F0F0B557464546DE464E46E0B54C000E0344
S113420087B0834692461D008046360B640DCF0F5F
S1134210002C4FD06F4B9C4235D08023420F1B049F
S1134220F600134333439946C30098466A4B00266D
S11342309C460023644403932B031B0B9B466B0097
S1134240ED0F50465B0D01955ED0624A934253D008
S11342505A46D1008022400F120402430A43934677
S11342605246D1005C4A94460022634438006840B8
S113427084460290E41A16430F2E00D9B4E0574B3B
S1134280B6009B599F460300334399466CD10023E3
S11342909846023308260393CEE7CB464146039A59
S11342A00197022A65D1019B4A4C9C4600230022B7
S11342B098466BE00300334399464ED0002E00D15C
S11342C0BCE1300001F026FA03000B3B1C2B00DD9F
S11342D0ACE11D22D31A5A460100DA4008398E4057
S11342E01300334399465B468B40984600233C4C6D
S11342F00026241A03939FE751465A46114329D1B5
S1134300002293460232B1E7594601431ED05B4670
S1134310002B00D19EE1584601F0FCF903000B3B51
S11343201C2B00DD8FE102005946083A91408B4670
S11343301D21CB1A5146D9400B0059460B43514617
S11343409B469140264B00221B1A8FE70023012233
S11343509B468BE75146032288E7002398460133A6
S113436004260024039367E70323B14603930C2632
S113437062E7032A00D15CE2019B012A00D0E4E158
S113438013409C4600230024002298460021120377
S1134390130B0A0D12051A432305124C4046224002
S11343A0134362465B00D2075B081343190007B04E
S11343B03CBC90469946A246AB46F0BD0023802201
S11343C09C4612039846034CE0E70023014C00226C
S11343D09846DBE7FF07000001FCFFFF84A900000B
S11343E00DFCFFFFFFFF0F80D94500D939E100D153
S11343F034E1002346464D469A46013C5B460A0E8C
S11344001B021A430B02170C039313041B0C3900F1
S1134410280090460193FEF78DFE0200019B83461F
S11344205A43280039009146FEF70AFF350C090467
S11344300D43A9450DD95B464544013BA84500D928
S11344403AE1A94500D837E102235B429C46454442
S1134450E3444B46EB1A390018000493FEF76AFE56
S1134460019B05004343390004989946FEF7E8FE92
S1134470330409041B0C0B43994509D943446A1EB0
S1134480984500D91AE1994500D817E1023D434403
S11344904A469B1A5A4612042A4303999346100C1F
S11344A00A0C914609045A46090C4E460D001204A2
S11344B0120C4543059151437243704352190E0C3B
S11344C0B218954203D980256D02AC466044150CA0
S11344D009041204090C28185218834200D2CEE0B1
S11344E000D1C8E01D1A53469E1AB2459241524269
S11344F0AB1A9A46984500D117E139001800FEF727
S113450019FE019B05004343390050460493FEF70E
S113451097FE04980B04310C1943884209D941448D
S11345206B1E884500D907E1884200D804E1023DAA
S11345304144049BCB1A180039000493FEF7FAFD9A
S1134540019B82464343390004980193FEF778FEA9
S113455001980B043104090C194388420DD95346C0
S11345604144013B884500D9E8E0884200D8E5E0B1
S113457002235B429C464144E244019B2D04CE1A33
S113458051462943059D4F462A000B04080C1B0C79
S11345905A4345437B4378435B19170CFB189D42F0
S11345A003D980256D02AC4660441D0C12041B0423
S11345B0120C28189B18864200D293E000D18EE09A
S11345C001231943A04BE318002B00DC99E04A07B0
S11345D000D09EE05A46D20106D55A469B4B1A405B
S11345E080239346DB00E318994A934268DD012354
S11345F0029A984C1A400023944698460022C5E635
S113460080224B46120313420AD05B46134206D162
S11346101A431203120BAC4688468E4CB6E64B4640
S11346201A431203120BBC468A4CAFE603005A46E7
S1134630283B9A4000239146984657E6584601F095
S113464069F8203040E603005246283B9A40002196
S1134650934677E601F05EF820305FE6884500D2A5
S1134660C7E64B46DE075D0843465B081E434346E8
S1134670DB079A46C2E60025924500D333E7039E42
S11346805946B446E244B245AD416D424544EB1847
S11346900139984507D2984200D97FE000D1BCE0A7
S11346A01D1A8B461FE79845FAD1039D5545F2D94B
S11346B043468B461D1A16E79B46CAE61500E7E6F5
S11346C05A46C90852070A435B0590465C0D5A4690
S11346D00123029952021940120B8C4656E6002B14
S11346E000D16FE746444A1EB04529D911008642DD
S11346F000D065E7039A934200D061E762E70121A5
S113470049420120C21A382A21DD029B03409C46FB
S113471038E60F220A40042A00D15BE70A00111D83
S1134720914292415242934454E7474BE318002B81
S1134730E5DD01225242F2E71D00FAE69A461CE743
S1134740B04239D86ED011003AE702933AE71F2AF3
S11347503CDC20239B1A0C005846994098404B1E81
S113476099415B46D440D340204308431A00430791
S113477009D00F230340042B05D00100081D8842F3
S11347809B415B42D21813023AD50123029A0124B9
S11347901A400023944698460022F7E50221494234
S11347A08C46039DE344AC46E244AA45AD416D42C8
S11347B04544ED182D1A96E68A1E03994D008D4244
S11347C0894149424144761803958FE71F204042AE
S11347D0C31A5846D8400300202A28D040205D46FA
S11347E0821A954029434A1E914119430723002206
S11347F00B4009D00F2300220B400800042BBDD12D
S1134800010053075202120BC908194301238846B9
S11348100299002419408C46B8E55245BED88B460F
S1134820002560E6039D9D42C6D3110062E7002582
S1134830D8E780225B4612031A43019B1203120B32
S11348409C468846034CA1E5FF030000FFFFFFFEE2
S1134850FE070000FF070000F0B557464546DE4658
S11348604E46E0B50C0398464E00230B87B0070074
S113487092469B46760DCD0F002E6BD06D4B9E421B
S113488035D080245B46420F2404DB0014431C43D0
S1134890C3009946684BA3469C4600230027664400
S11348A0029343461C035A00DB0F5046240B520D5F
S11348B0984600D176E05F4B9A426DD08023410F39
S11348C01B040B435C49E4008C461C43C3000020DA
S11348D062444146B6186940721C019194460743EC
S11348E00F2F00D9B0E0554ABF00D25997465B4616
S11348F00343994600D087E000239B4602330827F0
S11349000293CEE742460192022867D0032800D1E1
S11349100EE2012800D062E100230024002299461F
S113492001990140CDB2002112030B0D120B1B059E
S11349301343434A240513401C436400ED076408F1
S11349402C434846210007B03CBC90469946A246F9
S1134950AB46F0BD034399464FD05B46002B00D1D4
S113496089E1584600F0D6FE03000B3B1C2B00DD0A
S11349707AE11D22D31A3A0001005C46DA40083974
S11349808C4013008F4023439B46B94600232D4E91
S11349900027361A029384E7534623432AD100247E
S11349A0022096E75346234320D0002C00D157E140
S11349B0200000F0AFFE03000B3B1C2B00DD49E19F
S11349C01D21CB1A51460200D9405346083A94405F
S11349D093400C431B4A121A00207AE70125019BDD
S11349E0144C1D400023002299469CE70024002219
S11349F001206EE7534603206BE700239B460133F7
S1134A000427002602934CE7032381460C270293D4
S1134A1047E780220023002512039946054C82E7CC
S1134A205C464B4602986FE75C464B4601950298FC
S1134A306AE7C046FF07000001FCFFFFC4A90000AD
S1134A40FFFF0F800DFCFFFF4A464946170C1A0C66
S1134A501B041B0C08041900000C41431500884674
S1134A6019007D4379430395894629001500454380
S1134A704D44029545462D0CAA46029D5544A94530
S1134A8006D98A46802149028946CA44514603917F
S1134A90290C0491414609042D04090C8846290077
S1134AA0250C24044144240C0591210041438846EB
S1134AB0210079438A466843414650448146080CA4
S1134AC048446F43824503D98021490289464F44B3
S1134AD0010C894639004944029141460F04049966
S1134AE03F0C88460004C01980444146049159464D
S1134AF00F0C0904090C884659438A46390051436E
S1134B00894641464A435146090C8B467B43D21899
S1134B105A44934203D980235B029B46D9445146AD
S1134B200904090C8A46414661437C43130C120470
S1134B304B445244A1468A463C0041466C434D4393
S1134B4051464D440F0C7D19A94503D980214902D2
S1134B5088464444049F0399B84641448B468345A0
S1134B60804141428846514608042F04000C3F18F6
S1134B705846029910188946904292414F44BA46C9
S1134B80524299469346C244D144CB448F42BF41DA
S1134B90C245894199459B41934592417F4249428F
S1134BA02D0C52420F435B4213437F19FF185B469F
S1134BB03C19DB0D059A64021C43430213435D1E3A
S1134BC0AB415A46C00D034352021343E20156D58A
S1134BD001205A0803401343E207134364085A4868
S1134BE0604400284DDD5A0709D00F221A40042AD8
S1134BF005D01A1D9A429B415B42E4181300E2015E
S1134C0004D58020514AC00014406044504A904268
S1134C1000DDE3E60125DB0862071A436402019B19
S1134C209146220B4405640D1D407CE680225946C2
S1134C301203114208D0144206D122431203120B6C
S1134C4045469946434C6EE65B461A431203120BE3
S1134C50404C68E603005446283B9C400023B9E6D8
S1134C6000F058FD2030A6E60300283B9F400023B7
S1134C70BB4699468AE600F04DFD203074E6B44602
S1134C80ADE701252A1A382A06DD019B00241D40C0
S1134C9000230022994646E61F2A21DC2025200015
S1134CA0AD1A1E00AB40A840D6405D1EAB41304358
S1134CB01843D440430709D00F230340042B05D0E5
S1134CC00300181D98429B415B42E418230221D53E
S1134CD00125019B01241D4000230022994622E660
S1134CE01F2521006D42281AC1400800202A1DD02A
S1134CF05F35AA1A944023435C1EA341072503434E
S1134D001D400022002D09D00F2200241A40180053
S1134D10042AD6D1030065076402220BDB082B4367
S1134D2001259946019B00241D40FCE50024E2E78F
S1134D30802201251203224301991203120B0D4014
S1134D409946044CEFE5C046FF030000FFFFFFFE59
S1134D50FE070000FF070000F0B54646D6464F4662
S1134D600C03C0B5CD0F4E00610A440F0C43C100C3
S1134D705800400D84468A460F001903500F490A13
S1134D800143C648760DA846DB0FD200844500D106
S1134D90D8E001204340AB4200D1A6E06046351A7A
S1134DA0002D00DC05E1002810D10B00134300D1D5
S1134DB0D7E06B1E002B00D04BE153469F1ABA4537
S1134DC08041641A4042241A01261EE0B34B9E42DD
S1134DD048D080231B041943382D00DD19E11F2D11
S1134DE000DD4CE120230F005B1B10009A409F4024
S1134DF0E840531E9A41E940074317435346DF1BDB
S1134E00611ABA45A44164420C1B230200D4C5E0D4
S1134E106402650A002D00D1F6E0280000F07AFC57
S1134E200300083B1F2B00DDE9E020223C00D21ADE
S1134E309D40D4409F4025439E4200DDDBE09E1B05
S1134E40731C1F2B00DD0AE120223800D21A29002E
S1134E5097402C009140D8407A1E9741DC400026B0
S1134E6001430F437B0709D00F233B40042B05D09C
S1134E703B1DBB42BF417F42E4191F00230225D5DD
S1134E80864B01369E4200D1AFE0854B01251C4084
S1134E9043466207FF08640276051743240B760D28
S1134EA01D4000212403230B0C0D7E4A24051C43C2
S1134EB01440330523435B00ED075B082B433800A4
S1134EC019001CBC90469946A246F0BD01254346F4
S1134ED06207FF081743E4081D40704B9E4236D01A
S1134EE024037605240B760DDBE76346F31A002BC7
S1134EF000DC94E06046002835D068488642B1D092
S1134F0080273F043943382B00DCFDE00A431700B7
S1134F1000217A1E9741574457458041091944425C
S1134F200C1923023AD55D4B01369E4200D14BE168
S1134F3001225B4B1C407B0817401F43E2071743C9
S1134F4064088FE70800104300D024E721E723001A
S1134F503B4300D1B9E18022120314432403240B00
S1134F609FE72E007EE70800104300D1CAE0581ED8
S1134F708446002800D0E7E052445245804164183A
S1134F804042241817000126230207D50226CFE742
S1134F9064462C4300D1B3E12C0067467B0700D064
S1134FA062E76307FF081F4301254346E4081D40E9
S1134FB093E7002D78D1751C6D056D0D012D00DC76
S1134FC0F2E05046801A8245BF41651A7F42ED1BCC
S1134FD08446280200D48CE05046171ABA42924103
S1134FE00C1B5542651B984614E7012543460024D3
S1134FF01D40002755E72A4CF61A2C4032E73D00A5
S113500028388540002717E7380000F083FB20305C
S113501006E70A43170000217A1E9741EEE6002BAB
S113502000D0E5E0731C9C465B055B0D012B00DCA6
S11350309FE01A4B9C4500D1C5E052445245804143
S1135040641840422418E707520817436408664668
S113505008E71248854200D185E01D00BCE629001E
S11350601F3EF140202B00D17FE04022D31A9D4007
S11350702F437D1EAF4100240F4300268EE72B00F3
S11350800F00203BDF40202D71D040235D1BA94041
S11350900A43511E8A4100211743AFE6FF0700006F
S11350A0FFFF7FFFFFFF0F80002E3ED0B34EB445BD
S11350B045D0802636046D423443382D00DDA8E007
S11350C01F2D00DD1FE1202627005046761BB74028
S11350D0E84007435046B040461EB041EC403843D8
S11350E0171ABA4292410C1B5242A41A66469846B9
S11350F08BE6644667462C4300D08BE600250026E9
S11351000027EAE61E00ADE61F2B60DC2027F81A14
S11351100F00844687401000D84007436046824011
S1135120501E8241D9401743F5E6260050460643F7
S113513005D0ED43002DD3D0904EB445BDD10C0025
S11351401700664698468DE68C4883420BD063462A
S1135150D9E6002D00D096E00800104300D1E2E02B
S11351600C0017009846854E7CE6002580E7002158
S11351708EE7230050460343002E00D0A8E0002B06
S113518000D1DEE00B00134300D16BE652445245DC
S113519080416418404224181700230200D4FDE61D
S11351A0774B66461C405DE6250050460543002EBD
S11351B0CFD1002D4FD10C00144300D1A0E00C003E
S11351C0170098464EE666460024002785E61F0031
S11351D00800203FF8400700202B00D18EE040203B
S11351E0C31A99400A43511E8A410021174392E68B
S11351F0002E14D126005046064362D0DB43002B18
S11352005CD187189742924164185242A4186646AA
S113521087E650462043441EA041002460E7574ED1
S1135220B4454ED0802636045B423443382B00DD2F
S11352307FE01F2B00DD8BE0202627005046F61A66
S1135240B740D84007435046B040461EB0410743DC
S1135250DC40BF18D6E70D00154300D102E65046E6
S1135260801A8245BF41651A7F42ED1B844628029D
S113527000D48DE65046171ABA4292410C1B524292
S1135280A41A9846EEE50D00154300D16BE750468D
S11352906707C00807438020E4080003044207D0DE
S11352A0CD08054204D12C009846D70849070F437E
S11352B07B0FE4001C43FF00304ED3E52F4EB44572
S11352C0B4D10C0017006646CCE500270024E8E5BD
S11352D0002B39D00B00134300D144E7C008670703
S11352E007438020E40800030442E1D0CB080342D2
S11352F0DED1D70849070F431C00D9E7002171E725
S113530000250027E9E52E002700203EF740202D48
S11353102FD04026751BAC4050462043441EA0416C
S113532000243843DCE6802400252403134E0027A0
S1135330D3E5504620430700781E87410024BF1858
S113534060E70C0017008DE50C0017000B4E89E593
S11353501E002700203EF740202B0CD04026F31AD5
S11353609C4050462043441EA04107430024BF18DC
S113537048E70024D0E70024F3E7C046FF07000015
S1135380FFFF7FFF30B5134D0A034B00120B5B0D7B
S1135390C90F0024AB4210DD0F4CA3420FDC802464
S11353A00E4D64032243ED1A1F2D0BDD0C48C31A66
S11353B0DA405442002900D11400200030BD094BCA
S11353C0CC18FAE7084CE840A44663449A400243E8
S11353D0EFE7C046FE0300001D0400003304000094
S11353E013040000FFFFFF7FEDFBFFFF70B50028F3
S11353F030D0C317C4185C40C50F200000F08AF9F0
S1135400174B184A1B1AD21A1F2A18DD164AD21A29
S11354109440002224035B05240B5B0D0021100043
S113542024030A0D240B12052243104C1B052240B1
S113543013435B00ED075B082B43190070BD21008B
S113544091400A000B21081AC4405B052403240B75
S11354505B0DE3E70025002300240022DEE7C046BD
S11354601E0400003304000013040000FFFF0F803B
S113547010B5041E28D000F04DF9154B154A1B1A1F
S1135480D21A1F2A15DD144AD21A9440002224038A
S11354905B05240B5B0D0021100024030A0D240B73
S11354A0120522430D4C1B05224013435B0059088F
S11354B010BD210091400A000B21081AC4405B056D
S11354C02403240B5B0DE6E7002300240022E2E71B
S11354D01E0400003304000013040000FFFF0F80CB
S11354E04100090E4B1C70B5DBB24602750AC40FAD
S11354F0012B14DDE0239B006D07360BCB18002134
S11355000A0D280012051C4D32435B052A405B0836
S113551013435B00E4075B082343190070BD0029B3
S113552014D1002D1ED0280000F0F4F80A281CDC49
S11355300B232A001B1ADA40030015339D400F4B3E
S113554012031B1A5B05160B5B0DD8E7002D06D062
S1135550320B802636036D071643094BCFE7084B01
S11355600026CCE700230026C9E703002A000B3BF2
S11355709A400025E3E7C046FFFF0F80890300003F
S1135580FF070000F0B54C00640D0B03621C450FCF
S11355905B0A52052B43C90FC500520D012A28DDB1
S11355A03A4AA618FE2E1BDC002E3EDD80010200C6
S11355B0501E82416D0F2A43DB0013435A0704D067
S11355C00F221A40042A00D004338022D2041A4045
S11355D05AD00136FF2E03D09B015B0AF4B201E0DE
S11355E0FF2400235802E405400AC9072043084366
S11355F0F0BD002C07D01D43F2D08020DB008004D6
S11356000343FF26DAE72B4303D00523DB08FF2CF3
S113561003D05B025B0AE4B2E4E7002B32D08020C3
S1135620C00303435B025B0ADCE73200173214DB7E
S113563080221E2712041343BF1B1F2F0FDC144AA2
S1135640944664442A00A5402E00A340751EAE4132
S1135650FA40334313430026B0E70024D5E702227F
S11356605242961B1A00F240202F09D00948844662
S11356706444A3402B435D1EAB41002613439DE7C6
S11356800023F7E70023ADE73400BFE780FCFFFF0A
S113569082FCFFFFA2FCFFFF8446101C62468C467E
S11356A0191C634600E0C0461FB500F01BF9002832
S11356B001D40021C8421FBD10B500F075F8404266
S11356C0013010BD10B500F00DF9002801DB0020F9
S11356D010BD012010BDC04610B500F003F900282C
S11356E001DD002010BD012010BDC04610B500F042
S11356F095F8002801DC002010BD012010BDC04633
S113570010B500F08BF8002801DA002010BD01204C
S113571010BDC0461C2101231B04984201D3000C78
S113572010391B0A984201D3000A08391B09984210
S113573001D30009043902A2105C40187047C04626
S11357400403020201010101000000000000000046
S113575010B5002903D1FFF7DDFF203002E0081C5B
S1135760FFF7D8FF10BDC046414208401C21012369
S11357701B04984201D3000C10391B0A984201D330
S1135780000A08391B09984201D30009043902A20E
S1135790105C401A7047C0461B1C1D1D1E1E1E1E99
S11357A01F1F1F1F1F1F1F1FF0B54F464646D6461B
S11357B05C00C0B51F03DB0F9A46174B0E034D0068
S11357C084468046360B6D0DC90F91463F0B640D20
S11357D001209D4208D09C4201D0A5420BD01CBCA4
S11357E090469946A246F0BD63463343F7D1AC4296
S11357F0F5D13A43F3D10120BE42F0D1C845EED1F0
S1135800514507D0002DEAD163461E433000461EA1
S1135810B041E4E70020E2E7FF070000F0B54546A9
S1135820DE4657464E46E0B51F033D0B2C4F0E0394
S11358304C00AB465D008446360B640DC90F9046A0
S11358406D0DDB0FBC422AD0254FBD422DD0002C5C
S11358500FD130430700814678427841C0B2002D11
S113586017D15F463A4314D14B460020002B0AD08F
S113587006E0002D02D15846024301D0994218D0C7
S11358804842012108433CBC90469946A246AB4697
S1135890F0BD0028F2D00120013B1843F3E73700A4
S11358A00743D1D002204042EDE75F461743CED0F4
S11358B0F8E7AC42E4DC03DA481E01210843E2E7DE
S11358C05E45DDD806D000205E45DCD20123481EAB
S11358D01843D8E7C445D3D80020C445F6D3D2E74B
S11358E0FF070000F0B54E464546DE4657465C00CD
S11358F0E0B51F03DB0F99462A4B0E034D00C90F79
S11359008446360B6D0D8B4690463F0B640D9D42CD
S113591020D0244B9C4222D0002D12D1304343424C
S11359204341DBB2002C1FD0002B0CD04B4601208E
S1135930013B034318003CBC90469946A246AB4643
S1135940F0BD002C16D0CB4517D05B46594201233D
S11359500B43EFE7310002230143EBD1D9E73900D0
S113596002231143E6D1D7E73A43DDD100230028CF
S1135970E0D0EAE73A43E6D1E7E7A542E5DC05DB18
S1135980BE42E2D807D00023BE42D3D259460123F7
S113599001390B43CEE7C445D7D80023C445F5D31A
S11359A0C8E7C046FF07000070B50D4E0D4D00243A
S11359B0AD1BAD1005D0A300F35801349847A542A0
S11359C0F9D105F015FA084E084D0024AD1BAD10B1
S11359D005D0A300F35801349847A542F9D170BD0E
S11359E0FCAD0000FCAD0000FCAD000004AE000006
S11359F0F0B505000F2A2FD90B0003439B0734D1C0
S1135A0016000C000300103E350901352D0145191F
S1135A1027681F6067685F60A7689F60E768103445
S1135A20DF6010339D42F3D10F239E431036851956
S1135A3089191340032B1AD91E1F0023B4080134FB
S1135A40A400CF58EF500433A342FAD10324A64351
S1135A50331D2240C918ED18002A05D00023CC5C60
S1135A60EC5401339342FAD1F0BD0500F6E71A0075
S1135A70F2E7C046F0B5830743D0541E002A3FD056
S1135A80CEB20200032502E01A00013C38D3531CB5
S1135A9016702B42F8D1032C2AD9FF220A40150292
S1135AA015432A0415430F2C14D927001A00103F5C
S1135AB03E09013636019E19156055609560D56022
S1135AC010329642F8D10F2297431037DB19144055
S1135AD0032C0DD91A00271FBE080136B6009E19E3
S1135AE020C2B242FCD1032297430437DB1914408D
S1135AF0002C05D0C9B21C19197001339C42FBD18A
S1135B00F0BD14000300C6E70EB410B59DB002A9A1
S1135B10029008610B488224886048610120404259
S1135B201FABC881084804CBA400006801938C8192
S1135B3000F03EF80023029A13701DB010BC08BC9C
S1135B4003B01847FFFFFF7F1400002010B5830740
S1135B5025D00378002B24D00300032102E01A7817
S1135B60002A1AD001330B42F9D119680E4A0F4C9E
S1135B708A188A43224206D1043319680A4A8A18C9
S1135B808A432242F8D01A001B78002B03D001323A
S1135B9011780029FBD1101A10BD181AFCE7030074
S1135BA0E3E70020F8E7C046FFFEFEFE8080808029
S1135BB0F0B5DE46454657464E46E0B5C3B00D0047
S1135BC0069114000F93099002F0C0FC03681800BA
S1135BD01993FFF7BBFF1890AB891B0605D52B69FA
S1135BE00793002B01D101F063F832AB2593002316
S1135BF0A34625AFBB607B6014931693159332AE16
S1135C0017931A930A935B461B785C46002B1CD0AF
S1135C10252B02D119E0252B03D001342378002B46
S1135C20F9D15B46E51A10D05B463360BB687560FA
S1135C305B19BB607B6801337B60072B2EDC083665
S1135C400A9B9C46AC4463460A932378002B2ED0CF
S1135C50631C9B46002316AAD37701225242924624
S1135C60002200210B92203291462032637888462C
S1135C70002000249446594601311A00203A582A3B
S1135C8000D9FDE2D74D9200AA5897460B9B0F927C
S1135C905B420B9304231C430B78EDE73A0006990F
S1135CA0099803F0C3FA002809D132AEC8E7BB68EB
S1135CB0002B04D03A000699099803F0B7FA069B22
S1135CC09B895B0601D501F0CEF80A9843B03CBC31
S1135CD090469946A246AB46F0BD01220B78904609
